:020000040000FA
:10000000F8790020150200001D02000035150000DF
:100010002102000023020000250200000000000071
:1000200000000000000000000000000027020000A7
:1000300029020000000000002B0200002D02000039
:10004000ED1500002F020000451E00002F020000E9
:100050002F0200002F020000FD1200009916000080
:10006000FD1D0000151E00002D1E00002F020000C7
:100070002F0200002F0200002F0200002F020000BC
:100080002F020000651600002F0200002F02000062
:100090005D1B00002F020000651B00002F02000006
:1000A0002F0200002F0200002F0200002F0200008C
:1000B0003D1600002F0200000000000000000000BC
:1000C0002F020000511600002F0200002F02000036
:1000D0002F0200002F020000E112000000000000CB
:1000E0000000000000000000000000000000000010
:1000F0000000000000000000000000000000000000
:1001000000000000000000000000000000000000EF
:1001100000000000000000000000000000000000DF
:1001200000000000000000000000000000000000CF
:1001300000000000000000000000000000000000BF
:1001400000000000000000000000000000000000AF
:10015000000000000000000000000000000000009F
:10016000000000000000000000000000000000008F
:10017000000000000000000000000000000000007F
:10018000000000000000000000000000000000006F
:10019000000000000000000000000000000000005F
:1001A000000000000000000000000000000000004F
:1001B000000000000000000000000000000000003F
:1001C000000000000000000000000000000000002F
:1001D000000000000000000000000000000000001F
:1001E000000000000000000000000000000000000F
:1001F00000000000000000000000000000000000FF
:10020000DFF80CD000F02CFE00480047094D00003C
:10021000F87900200648804706480047FEE7FEE7D9
:10022000FEE7FEE7FEE7FEE7FEE7FEE7FEE7FEE7A6
:10023000AD1B000001020000A0F14101192900D806
:100240002030704740EA01039B0703D009E008C94A
:10025000121F08C0042AFAD203E011F8013B00F88B
:10026000013B521EF9D27047D2B201E000F8012BD7
:10027000491EFBD270470022F6E710B513460A4626
:1002800004461946FFF7F0FF204610BD421C10F847
:10029000011B0029FBD1801A704710B5002200E035
:1002A000521C835C8C5CA34201D1002BF8D1D8B2E4
:1002B000E1B2401A10BD034611F8012B00F8012BE2
:1002C000002AF9D11846704730B50546002003468C
:1002D00000E05B1C934205D2EC5CC85C201A01D1A3
:1002E000002CF6D130BD00000FB400B58DB010A9C0
:1002F00009900B9000914FF0FF300A9000200C9075
:1003000005480690054807906A4609A80F9900F02D
:1003100073FC0DB05DF814FB150C0000330C0000ED
:100320002DE9FF4F087883B09946FF2805D0491C76
:100330002D2804D00024002008E000200BE0012438
:10034000F9E700EB800003EB4000491C0B78FF2B22
:10035000F7D104B1404200230293147819461D4698
:100360002D2C01D02B2C04D1521C2D2C13D0002469
:100370000294AA461478FF2C0FD00A25A3FB057817
:1003800001FB05814FF0000C03FB0C11521CE3191B
:100390004AEB0101EEE70124EAE7814453EA010058
:1003A00002D019F5C87F06DA03980021C0E90011D0
:1003B00007B0BDE8F08F0025AE4E2F46DFF8B882BB
:1003C000184600F029FDCDE90001B9F1000002DA7C
:1003D000C9F1000400E004460023A74A1AEB030B0E
:1003E00042EB045A12E0E00707D02A46334638466B
:1003F000414600F0ECF9074688462A463346104647
:10040000194600F0E4F905460E466410002CEAD1C6
:10041000DDE90001B9F1000F5A46534606DA00F053
:1004200048FA3A46434600F044FA05E000F0CFF9B6
:100430003A46434600F0CBF9029A0AB181F00041F6
:10044000039AC2E90001B3E72DE9FF4F1F468DB0C3
:10045000D7E901464FF0FF382E2045464FF00009FE
:100460000B90B9696D1C0E988847396A8246884797
:100470000028F6D1BAF1FF3F0AD024F4D064002E50
:1004800011DDBAF12B0F08D0BAF12D0F0BD102E01C
:10049000404611B08DE744F48064B9696D1C0E9834
:1004A00088478246761E6946600501D52D2000E00A
:1004B0002B208DF8000001F1010B0DF1200809E05F
:1004C000B9696D1C0E98884782460F9844F40074F1
:1004D000761E0560002E02DDBAF1300FF0D00B99C8
:1004E0008A453ED144F0800406E00F99681CA9F1CA
:1004F000010944F400740860B9696D1C761E0E98F9
:10050000884782463028F0D02BE00B998A4505D1E8
:10051000200603D444F08004761E18E0504602F012
:100520007DFA08B30DF11301761E44F400748B4577
:1005300008D2AAF130000BF8010B200607D5A9F16B
:10054000010003E0200602D409F101008146A00564
:1005500002D50F99681C0860B9696D1C0E98884710
:100560008246002ED1DC53E0002E51DDBAF1650F3A
:1005700002D0BAF1450F4BD1A00549D5B9696D1C20
:1005800024F44074761E0E9888478246002E0CDDB7
:100590002B2804D0BAF12D0F07D144F48074B96927
:1005A0006D1C0E9888478246761EE00501D52D21E8
:1005B00000E02B2108F8011BCDF82C8021E00DF183
:1005C0002901761E44F4007488450CD2AAF130004B
:1005D00010F0FF0088F8000002D10B99884509D976
:1005E00008F1010806E0E00501D5244801E042F2E7
:1005F0000F708146B9696D1C0E98884782460F9826
:100600000560002E04DD504602F008FA0028D6D11D
:10061000F9690E988847FF208BF8000088F80000E1
:100620000020069007904B466A4608A906A8FFF7E7
:1006300077FEA00502D46FF001002AE714F0240F22
:100640000AD0E00714D1DDE906123868031D3B60CB
:100650000068C0E900120BE0DDE9060100F032FAA3
:100660000146E00704D13868021D3A600068016065
:1006700028460EE7000014400000F03FF1D8FFFFCD
:100680002DE9FE4F804681EA0300C00F0C46009022
:1006900021F0004123F00045B8EB0200A94105D24A
:1006A0004046214690461C460B46024623F0004039
:1006B000104347D0270DC7F30A00C3F30A51029035
:1006C000401A019040286BDAC3F3130040F4801BFA
:1006D0000098924620B10023D2EB030A63EB0B0B88
:1006E00001985946C0F14002504600F04EFA0646C5
:1006F0000D4650465946019A00F066FA10EB080084
:100700006141002487EA115284EAE7731A4340D01A
:10071000009A62B3019A012A4FEA075215DC001BC6
:1007200061EB02014FF0004202EA0752CDE90042BC
:10073000001C41F5801132462B4600F01FFB03B030
:10074000BDE8F08F40462146F9E7001B61EB02014E
:10075000001C41F5801300185B412018A2F500171A
:1007600047EB030140EAD570B6196D4111E06D0801
:100770004FEA360645EAC0754FEA0752001B61EBA7
:100780000201001C41F5801149084FEA30000019B0
:10079000514132462B4603B0BDE8F04F00F0DFBABE
:1007A0000098012240000023D0EB020263EBE073CB
:1007B000009821464FEAE074B8EB000061EB0401B9
:1007C000E9E783F000435BE781F0004158E72DE95A
:1007D000FE4F81EA030404F0004421F0004100943C
:1007E0004FF0000B23F0004350EA01045ED052EAC0
:1007F00003045BD0C3F30A54C1F30A552C44A4F29A
:10080000F3340194A0FB0254C1F3130141F48011AD
:10081000C3F3130343F4801301FB024400FB034EB4
:10082000840A970A44EA815447EA8357A4FB07687D
:1008300002958D0A05FB07854FEA932C04FB0C54A7
:100840002705029D4FEA065847EA1637B5EB08051B
:100850006EEB070C870E920E47EA811742EA83126D
:10086000A7FB0201B6EB0B0164EB00042B0D43EA7E
:100870000C335E1844EB1C50DA465146E7FB02018C
:10088000C5F313044FEA0B3343EA14534FEA04321F
:10089000019C43EA0603A4F10C040294009CCDE9F8
:1008A00000B400F06BFA03B0BDE8F08F0020014601
:1008B000F9E72DE9F04D81EA030404F0004B21F043
:1008C000004514464FF0000A23F0004150EA0502AB
:1008D00020D054EA01021DD0C5F30A570246C5F3E1
:1008E0001303C1F31300C1F30A5640F4801543F417
:1008F0008013A7EB0608101BD64608F2FD3873EBF1
:10090000050002D308F1010801E092185B41B8F13B
:10091000000F03DA00200146BDE8F08D00204FF4FF
:100920008011064684460EE0171B73EB050705D3BE
:10093000121B63EB050306434CEA010C49084FEA1E
:10094000300092185B4150EA0107EDD152EA0300F2
:1009500012D082EA040083EA0501084305D0101B87
:10096000AB4106D20122002306E000224FF00043F3
:1009700002E06FF0010253101AEB06004CEB085135
:1009800010EB0A0041EB0B01BDE8F04D00F0E7B9B8
:100990000EB5C10F80EAE0700844CA07002140F29A
:1009A00033438DE80E000A460B4600F0E7F903B02A
:1009B00000BD0EB540F2334102910021CDE9001196
:1009C0000A460B4600F0DAF903B000BD70B5C1F37A
:1009D0000A5201F000450024C1F3130140F2FF3335
:1009E00041F480119A4201DA002070BD40F2334395
:1009F0009A42A2F2334203DC524200F0D5F800E002
:100A000090402C43F1D0404270BDC1F30A5210B562
:100A1000C1F3130140F2FF3341F480119A4201DA2D
:100A2000002010BD40F233439A42A2F2334203DC6D
:100A3000524200F0B9F810BD904010BD00F00042E5
:100A400030F000400AD0C10D01F56071C0F316000E
:100A500042EA0151C2084007114370470020014695
:100A60007047000030B5041E71F1000404DB4FF044
:100A70000044404264EB0101141E73F1000405DBE5
:100A80001C464FF00043524263EB04038B4208BF05
:100A9000824230BD30B5041E71F1000404DB4FF01A
:100AA0000044404264EB0101141E73F1000405DBB5
:100AB0001C464FF00043524263EB0403994208BFC7
:100AC000904230BD01F0004330B421F0004150EAC3
:100AD000010206D00A0DA2F56072C1F31301002ACB
:100AE00002DC30BC00207047440F44EAC104C1005E
:100AF000E01830BC00EBC25000F0FAB830B50B463D
:100B0000014600202022012409E021FA02F59D423D
:100B100005D303FA02F5491B04FA02F52844151E11
:100B2000A2F10102F1DC30BD2DE9F05F05460020A5
:100B300092469B4688460646814640241BE028464E
:100B400041464746224600F02FF853465A46C01AFF
:100B5000914110D311461846224600F016F82D1A7E
:100B600067EB01084F4622460120002100F00DF8F6
:100B700017EB00094E41201EA4F10104DFDC4846BA
:100B800031462A464346BDE8F09F202A04DB203A3E
:100B900000FA02F1002070479140C2F1200320FAD0
:100BA00003F3194390407047202A04DB203A21FACE
:100BB00002F00021704721FA02F3D040C2F1200276
:100BC0009140084319467047202A06DBCB17203A8C
:100BD00041FA02F043EAE07306E041FA02F3D04042
:100BE000C2F120029140084319467047026811443F
:100BF0001378016018467047D16004495161044977
:100C0000116200211161114600F042B9ED0B0000A4
:100C1000850E0000426842B1016811F8013B23B122
:100C2000521EC0E90012184670470121C160881E9B
:100C3000704742685AB1C368016843B983688B4200
:100C400005D0491E521CC0E90012002070474FF029
:100C5000FF3070470FB4002300B589B00CA9009194
:100C60000B996FF00042CB601E4B06931E4B07930F
:100C70000423CDE901321D4A089202466B4600204A
:100C8000FFF7E2FB09B05DF814FB70B586B00646CD
:100C90004FF0FF300091CDE90101002015460C46D0
:100CA00004903246694604A8FFF7D4FF0246049830
:100CB000211825B108B1084600E0204628600498B4
:100CC00000280DD0002A02DD0098884208D0081BB9
:100CD0000094CDE901043246694604A8FFF7BAFF43
:100CE00006B070BD150C0000330C0000850E00002E
:100CF0000029A8BF7047401C490008BF20F0010030
:100D0000704710B4B0FA80FC00FA0CF050EA01040D
:100D100004BF10BC704749B1CCF1200421FA04F49F
:100D200011FA0CF118BF012121430843A3EB0C0178
:100D3000CB1D4FEA00614FEA102042BF002010BCDB
:100D4000704700EBC35010440029A4BF10BC70478B
:100D5000401C490008BF20F0010010BC704710B5CE
:100D6000141E73F1000408DA401C41F100019218CE
:100D70005B411A4301D120F0010010BD2DE9F04D77
:100D800092469B4611B1B1FA81F202E0B0FA80F2CC
:100D900020329046FFF7F9FE04460F4640EA0A006B
:100DA00041EA0B0153465A46084313D0114653EA11
:100DB000010019D0C8F140025046FFF7F5FE054684
:100DC0000E46504659464246FFF7DFFE084305D01F
:100DD000012004E020463946BDE8F08D002005439F
:100DE00046EAE0762C4337430A986305E40AA0EB11
:100DF00008000022FD0A44EA47540A3002D50020C8
:100E00000146E9E7010510196941DDE908450019C6
:100E10006941BDE8F04DA2E70EB540F233420292BF
:100E20000022CDE900221346FFF7A8FF03B000BD62
:100E3000C1F30A52C1F3130140F2FF3341F48011B0
:100E40009A4202DA00200146704740F233439A4248
:100E5000A2F2334202DC5242FFF7A6BEFFF795BE74
:100E6000064C074D06E0E06840F0010394E80700F7
:100E700098471034AC42F6D3FFF7C6F930AE000005
:100E800050AE0000C0B24FF4F05100F0E9B90000DC
:100E90002DE9F34F8BB04FF0000801F10C000C4628
:100EA0004FF0010B46460DF1080A019062690121DD
:100EB00001989047051E2DD0252D2CD0216A8847FA
:100EC000C0B16269012101989047216A88470028D2
:100ED000F7D1411E62690198904700E0761CA16934
:100EE0000B988847216A88470028F7D1E1690B9859
:100EF0008847DBE7A1690B9888470746A84201D1DC
:100F0000761CD3E7E1690B9888477F1C02D1B8F1C2
:100F1000000F6FD046E1002762693D4639460198CF
:100F200090472A2804D16269012101989047012540
:100F3000DFF884926269012101989047A0F13001A5
:100F40000A290AD24F45E5DC07EB870100EB410790
:100F5000303FDFD445F01005ECE7E90601D46FF02F
:100F600000476C280AD04C2814D0682815D06A286D
:100F70000DD074281CD07A281AD01DE06269012196
:100F8000019890476C2802D045F0040514E045F024
:100F900002050DE045F020050AE062690121019893
:100FA0009047682802D045F0080505E045F4006543
:100FB0006269012101989047C4E9015765283DD035
:100FC00019DC58287AD00CDC452837D004DC2528D9
:100FD00026D0412831D131E046282FD047282CD1C6
:100FE0002CE05B2877D0612828D063287CD0642847
:100FF00023D15AE0D0E06F2848D008DC66281DD005
:1010000067281BD0692821D06E2816D127E07028C8
:1010100045D0732868D0752847D078280DD14DE089
:10102000A1690B988847054625283FF469AFE16917
:101030000B9888476D1C3FF46AAFB3E023466A46BD
:101040006FF001000B99FFF7FFF99EE045F04000BB
:101050006060A80723464FF0000236D43EE0E80760
:101060007FF447AF2068011D21600068290501D584
:1010700006701BE7290701D5068017E7A90703D5E6
:10108000F117C0E9006111E706600FE745F0400085
:101090006060A80723464FF0080216D41EE040F611
:1010A0000E0125EA0100606016E045F04000606036
:1010B000A80723464FF00A0207D40FE045F040008E
:1010C0006060A80708D5234610226FF001000B9935
:1010D000AFF3008059E007E0234610226FF00100D3
:1010E0000B99AFF3008050E04FF000094F464B469C
:1010F000632802D05B2806D040E0E80601D4012036
:10110000A06001273AE062690121019890475E28BA
:1011100005D14FF00109626949460198904721695C
:1011200039B900210A46534643F82120491C0829B1
:10113000FADBB0B3216969B9C11700EBD162531171
:101140000AEB830122F01F02821A01200B689040F3
:1011500003430B6062690121019890475D28E8D143
:10116000B9F1000F09D00020514651F82020D24398
:1011700041F82020401C0828F7DB02AB22460097EC
:101180006FF001000B99AFF3008000280CDA401CCF
:1011900008D1BBF1000F05D04FF0FF300DB0BDE816
:1011A000F08FFFE74046F9E7E90701D108F10108B0
:1011B00006444FF0000B79E6CCCCCC0C2DE9F04D79
:1011C00000231A461B1A8A4103DB00200146BDE8B2
:1011D000F08DC1F30A52C1F3130141F480154FF0B1
:1011E000000BD10702D100186D41521E00270446A2
:1011F00040F2FF11384601EB620A3E468046024645
:1012000000204FF48011FFF7CFFCC2197141BB18C9
:1012100046EB0100B4EB030C75EB000C04D3E41AAD
:1012200065EB000517460E46241908F101006D41D3
:1012300080463428E3DDF91946EB0600091BA84176
:1012400003D24FF0FF32134601E0002213461BEB9E
:10125000070046EB0A51BDE8F04DFFF780BD0000E6
:101260007F2801D9002208E0064A02EB5002C0079D
:10127000127800D1120902F00F02012090400840BC
:1012800070470000A8AD000070B58C1810F8015B25
:1012900015F0070301D110F8013B2A1106D110F80F
:1012A000012B03E010F8016B01F8016B5B1EF9D113
:1012B0002B0705D40023521E0DD401F8013BFAE799
:1012C00010F8013BCB1A921C03E013F8015B01F804
:1012D000015B521EF9D5A142D8D3002070BD000099
:1012E0000549096801F1400000BFF1EE101A0168DC
:1012F00021F09F010160704738EF00E02DE9F04FC9
:1013000089B04FF00008002008904FF480700790DB
:101310000126002413E0079804F01CFB48B100BF2D
:1013200081480068304020B1079804F005FB48EA86
:10133000060876000798001D80B20790641C082CF0
:10134000E9D34FF4BE7004F005FB50B14FF4BE700A
:1013500004F0F2FA48F0004808AA0121002004F045
:10136000D1FA08F0FF0000B3012600241BE006EAD2
:101370000800B0B100BF6D4850F82400C0F304204D
:10138000074600BF694850F82400C0F30140814679
:10139000204602F031FA054615B149463846A847BD
:1013A00000BF7600641C082CE1D308F00040002840
:1013B0007ED0002006900590002505E04FF0FF301C
:1013C00004A941F825006D1C002DF7D000BF0020B6
:1013D000069000246FE05648005D0390039820F0CB
:1013E000C00753480057401C002863D004A9384662
:1013F00003F01AFD00285DD003984FEA901A384692
:1014000002F042FA814602F0F7F90290029810B910
:10141000BAF1030F4BD1BAF1030F11D1394605A828
:101420000246CB0801F0070112F803C04FF0010E8D
:101430000EFA01FE4CEA0E0C02F803C000BF00BF1A
:1014400000BF00BF4FF0A041084600F5E06151F831
:101450002710C1F3014900BF08A9384603F0E4FC96
:101460008346BBF1000F02D0B9F1020F05D0BBF1EA
:10147000000F1BD1B9F1030F18D1BAF1030F0FD12F
:10148000B9F1020F01D1032000E00220019038469B
:10149000019904F0D9F90698401CC0B2069000BF2B
:1014A000029818B151463846029A904700BF00E0B2
:1014B00036E000BF641C042C8DD3069858B3012776
:1014C00003AA0121002004F01DFA00250AE003A868
:1014D00050F8250008A951F82510884201D00027AE
:1014E00002E06D1C002DF2D000BF17B10020069065
:1014F00010E000250CE003A850F8250008A941F8E9
:10150000250005A850F8250004A941F825006D1C08
:10151000002DF0D000BF069800287FF458AF00BF20
:1015200009B0BDE8F08F0000046300401065004082
:10153000E431002000221146104601F07BFE00003D
:1015400000F01F0201219140024A430942F8231092
:101550007047000080E200E000F01F02012191408E
:101560004209920002F1E022C2F800117047000027
:1015700000F01F0201219140024A430942F8231062
:101580007047000000E200E010B5002807DA4A07C3
:10159000140E054A00F00F031B1FD45403E04A0742
:1015A000130E024A135410BD18ED00E000E400E0F1
:1015B000002001210A4A116000210A4A116001211C
:1015C0008A07916005E00146401C074A914200D31A
:1015D00003E0044909680029F5D000BF7047000006
:1015E0001805004004010040006A180010B54FF4CF
:1015F000807003F024FC60B14FF4807003F028FC8D
:10160000012003F02FFC01200B494870002002F05C
:1016100095F94FF4827003F012FC58B14FF48270C8
:1016200003F016FC022003F01DFC01200249887023
:1016300002F084F910BD00008031002010B502498D
:10164000024803F0C5F910BD1032002000C001406F
:1016500010B50249024803F0BBF910BD1832002052
:101660000010024010B50020094908600021094817
:10167000C0F84411C0F84811C0F84C1100200549C9
:10168000C1F8000102493C39086009F017F810BDA3
:101690004011014000100140FEB54FF4827004F08B
:1016A000B3F9002837D04FF4827004F0B7F96C48D2
:1016B00090F82E0018B16A4890F82F0058B3002017
:1016C0008DF8000066484068019065480189ADF8D2
:1016D0000810C06818B900206149087412E0604819
:1016E000008B5F4948830846C06848600846008B05
:1016F00008810020C860084690F82E0010B900202C
:1017000004F098F956480168684688470020544913
:1017100081F82F0000BF524890F82E00002852D0C8
:101720004FF4807004F070F900284CD04FF48070B2
:1017300004F074F94A48408B494991F82D108842C9
:1017400016DD4748408B464991F82D10401A444910
:1017500048830A4612890B465B8BD21A0B465B689C
:1017600003EB42000A4692F82D1004F045F923E0FD
:101770003B48408B3A4991F82D1088420FD13848A8
:10178000C06860B10120364981F82F0000204883ED
:101790000A4692F82D10D06804F02EF90CE030487B
:1017A000408B2F4991F82D10884205D101202C49FA
:1017B00081F82F00002048834FF4827004F02EF946
:1017C000042004F037F94FF4887004F01DF970B16B
:1017D0004FF4887004F022F9002021490874022097
:1017E0008DF80000084601686846884700BF4FF43E
:1017F0008A7004F009F938B14FF48A7004F00EF9D8
:101800000020174908742AE01548456924E0B5FA14
:1018100085F64FF00040F0408543B00000F58C7431
:10182000204604F0F1F8B8B1204604F0F7F80120A2
:101830008DF80000A4F58C70C0F3C7008DF804008B
:10184000A4F58C70012121EA90018DF8051004485F
:1018500001686846884700BF002DD8D100BFFEBD93
:10186000BC3400202DE9FC4104460D46164600BF5D
:101870000C48007808B900F04FFB00BF0020019031
:101880000090684601F0A2FD32462946204600F04D
:101890000BF8074600BF9DF8000001F09DFD38469B
:1018A000BDE8FC81FC3800202DE9F047074688465A
:1018B0001646C24607EB47011B4800EBC109D9F8A1
:1018C000140020B1012811D0022826D11EE048467C
:1018D00000F05AFB0546B54201D2002405E034462B
:1018E00032465146484600F0A4FC18E0484600F055
:1018F0004BFB0546B54201D2284600E0304604467F
:1019000022465146484600F094FC08E032465146D3
:10191000484600F055FC044601E0002400BF00BF2B
:101920002046BDE8F0870000143900200FB438B518
:10193000044606A800906A462046059900F006F87D
:101940000546284638BC5DF814FB00002DE9F04F31
:1019500089B082460D4614467F4804908020059049
:1019600000200690CDF820A0079000BF2E786D1CB7
:1019700006B9DDE0252E79D100274FF0010900BF1F
:101980002E78232E12D02B2E0CD02D2E02D0302EBE
:1019900010D103E047F001076D1C0EE047F002078D
:1019A0006D1C0AE047F004076D1C06E047F00807CD
:1019B0006D1C02E04FF0000900BF00BFB9F1000F3D
:1019C000DED14FF0000800BF2E78302E01DB392E1B
:1019D00000DD07E06D1CA6F1300008EB880100EB8C
:1019E0004108F1E700BF002003902E782E2E12D17F
:1019F0006D1C00BF2E78302E01DB392E00DD09E092
:101A00006D1CA6F13000039901EB810100EB410050
:101A10000390EFE700BF2E7800BF6C2E01D0682E38
:101A200002D12E786D1C00E000E0F6E700BF702EBA
:101A30005DD008DC252E6AD0582E35D0632E09D013
:101A4000642E69D113E0732E3CD0752E1DD0782EF4
:101A500062D128E02168081D2060D1F8009009F0CB
:101A6000FF0B594604A800F089FB56E058E02168B6
:101A7000081D2060D1F80090CDE900870A22494670
:101A800004A8039B00F08EFA47E02168081D20603F
:101A9000D1F80090CDE900870A22494604A8039BAB
:101AA00000F0F6FA39E000BF2168081D2060D1F887
:101AB0000090CDE900871022494604A8039B00F05E
:101AC000E7FA2AE02168081D2060D1F800B000BFC5
:101AD0009BF800600BF1010B06B906E0314604A843
:101AE00000F04CFB07980028F2DA00BF15E02168EF
:101AF000081D2060D1F80090002008210B4610221C
:101B0000CDE90010494604A800F0C2FA05E02521FD
:101B100004A800F033FB00E000BF00BF6D1C03E031
:101B2000314604A800F02AFB07980028BFF61EAF34
:101B300000BF079800280ADD069820B106495046E4
:101B4000069AFFF78FFEDDE9061008440790079814
:101B500009B0BDE8F08F00007439002010B508F01E
:101B6000D7FC10BD70B50B48006880B1094800680B
:101B70008047044600BF25463DB100BF064A40F2FB
:101B8000D111284601F056FB00BF00BF01E002F072
:101B900067FE70BDA4290020E8AD0000014802499D
:101BA000086070470090D0036C29002010B502F047
:101BB00093F828B182480088C0F304208149086066
:101BC00002F0B4F810B180488049486702F0C6F8C6
:101BD00030B17B48E0380068C0F342307C4908608F
:101BE00002F0E6F828B17B48006820F0807079495F
:101BF000086002F0F5F848B10020774908604FF01E
:101C00008041C1F810017249091F086002F012F901
:101C100018B103206E496431086002F023F968B1FD
:101C200005206E49086001206C4978310860002069
:101C30006A49083108603F20091F086002F02AF94C
:101C4000002855D05E48E0300068654908605C486F
:101C5000E4300068091D08605948E8300068091D33
:101C600008605748EC300068091D08605448F0309F
:101C70000068091D08605248F4300068091D0860BA
:101C80004F48F83000685649203108604C48FC3015
:101C90000068091D086053480068091D0860514824
:101CA000001D0068091D08604E4808300068091DC5
:101CB00008604C480C300068091D08604948103025
:101CC0000068474940310860464814300068091DE3
:101CD0000860444818300068091D086041481C30FD
:101CE0000068091D08603F4820300068091D086031
:101CF00001F0C8FF30B13248CC38006800F04F0026
:101D00003949086033487438006840F4700031493C
:101D10007439086000BF00BF00BFBFF34F8F00BF22
:101D200000BF00BF00BF00BF00BFBFF36F8F00BF89
:101D300000BF00BF2D48006800F00100E0B30120A3
:101D40002B49086000BF2B4800680028FBD02748BB
:101D5000006820F001004FF01021C1F80C0200BF14
:101D6000244800680028FBD000202149086000BFFB
:101D7000204800680028FBD000BF00BF00BF00BFA4
:101D800000BFBFF34F8F00BF00BF00BF1148F03846
:101D9000006800F4E06018490843001D0D49F0395F
:101DA000086000BF00BF00BFBFF34F8F00BF00BF80
:101DB00000BF00BF00BFFDE7FFE7FFF7EFFE10BD6C
:101DC00024030010403501400DF0ADBA00C00740BB
:101DD0003C050040FCED00E00C01004010560040C6
:101DE00020C5004024040010E40E00400C12001036
:101DF00004E5014000E401400000FA0510B50422AA
:101E00000249034802F0B6FD10BD0000EC3100208D
:101E10000080004010B504220249034802F0AAFDE8
:101E200010BD0000F83100200090004010B50422E1
:101E30000249034802F09EFD10BD0000043200205C
:101E400000A0004010B508F0C5F90446214602483C
:101E500004F0F9FD10BD0000D82900202DE9FC4157
:101E600004460D46164600BF00200090034601229E
:101E700011460190204603F07FFC00BF204804601B
:101E80000027002000903B4602460146019028466C
:101E900003F072FC00BF1A4808300560184818307B
:101EA0000660042016490C39086001201549886035
:101EB000086000201449086004201249C1F8040396
:101EC00002200321002807DA4A07170E0F4A00F004
:101ED0000F031B1FD75403E04A07130E0C4A135479
:101EE00000BF0220012181404209920002F1E0225C
:101EF000C2F8001100BF012006490870BDE8FC814E
:101F00000C250040002000400821004018ED00E0B2
:101F100000E400E08021002010B5124C0220206176
:101F2000606111A0A0611349E1614FF480612162F9
:101F30000021A1626162E1620BA0A0640E49E1642C
:101F4000102121650021A1656165E1650BA1E01DFE
:101F5000FEF7B1F90AA12046FEF7ADF92020A071E5
:101F600010BD0000FC3800205465726D696E616C14
:101F700000000000EC340020EC38002052545400E3
:101F8000534547474552000010B501460A69CB68E2
:101F90009A4204D88C68641EE41AA01801E0D41A8E
:101FA000601E10BD2DE9FC5F06460F46924698461E
:101FB000DDE90C45002F01DA784200E0384683461F
:101FC0004FF0010903E09BFBFAFB09F10109D3453E
:101FD000F9DAC84500D9C14634B1002F03DB05F05A
:101FE0000400042800D1641E05F0020010B1B8F10D
:101FF000000F11D005F0010070B96CB108E0641E4B
:102000002021304600F0BAF8F068002800DA02E03B
:102010000CB1A145F3D300BFF068002836DB002FD8
:1020200005DA7F422D21304600F0A8F807E005F0E0
:102030000400042803D12B21304600F09FF8F068FB
:10204000002823DB05F00200022814D105F001006E
:1020500088B9B8F1000F0ED16CB108E0641E3021D0
:10206000304600F08BF8F068002800DA02E00CB18E
:10207000A145F3D300BFF068002807DB4346524672
:1020800039463046CDE9004500F002F8BDE8FC9F36
:102090002DE9FC5F8046894615461E460C9CCDF80E
:1020A00004900127BB4605E00198B0FBF5F00190D4
:1020B0000BF1010B0198A842F6D25E4500D9B34658
:1020C0000D9800F00100D0B9CCB10D9800F00200DD
:1020D000022803D116B93020009001E020200090A2
:1020E00009E0641E4046009900F048F8D8F80C005A
:1020F000002800DA02E00CB1A345F2D300BFD8F803
:102100000C00002835DB09E0012E01D9761E04E021
:10211000B9FBF7FAAA4500D201E06F43F4E700BF2C
:1021200000BFB9FBF7FA0AFB1799134810F80A1019
:10213000404600F023F8D8F80C00002800DA03E04D
:10214000B7FBF5F7002FECD100BF0D9800F00100B0
:1021500078B174B109E0641E2021404600F00EF809
:10216000D8F80C00002800DA02E00CB1A345F2D345
:1021700000BFBDE8FC9F000044AD000070B5044600
:102180000E46A568681C6168814206D320684655E2
:10219000681CA060E068401CE060D4E9011088423F
:1021A0000DD1A26821682069FFF75CFBA168884215
:1021B00003D04FF0FF30E06001E00020A06070BD70
:1021C0002DE9F0470446894617464FF0000AE568B6
:1021D00000BFD4F81080A84503D9A8EB0500461E1F
:1021E00004E0A5EB0800401CA1680E1AA068401B83
:1021F000B04201D9304601E0A068401B0646BE420D
:1022000001D2304600E03846064661684819324639
:102210004946FEF717F8B244B144BF1B3544A068E5
:10222000A84200D10025E560002FD2D15046BDE87C
:10223000F0872DE9F047044689461546E668A06810
:10224000871BAF4208D9616888192A464946FDF7BD
:10225000F9FF7019E06010E0B846616888194246DD
:102260004946FDF7EFFFA5EB070809EB07014246DA
:102270006068FDF7E7FFC4F80C80BDE8F087000058
:102280000FB4084B10B504A902AA039800F0CEFBC6
:10229000044602A9002000F060FF204610BC5DF853
:1022A00014FB00005B31000003B40198410000986A
:1022B00050EAC12018BF04204A0D18BF40F00100A9
:1022C00040F2FF72B2EB515F08BF40F002000128FC
:1022D00008BF052002B0704730B528B1144C031F69
:1022E000002021680A4605E0084630BD9A4203D81E
:1022F00010465268002AF9D1002800D041680BD05E
:102300000468A3EB0005A54204D11B681C440346E6
:10231000046002E0436000E023603AB11C68D51A13
:10232000A54203D115682C441C6052685A6030BD28
:10233000BC2900200000000070B5C1482DED020B43
:102340002DED0E8B82B0119D25F000449FEDBEDB7C
:102350009FEDBFEB84423EDBA4F140511098A1F108
:102360007F6108430FD0BC48844202DC28D110981A
:1023700030B39DED100B02B0BDEC0E8B02B0BDE88A
:10238000704000F041BA9DED100B53EC1D2B51EC49
:10239000100BFEF71CFA9DED100B41EC180B53ECE3
:1023A0001E2B51EC100BFEF712FA53EC182BFEF714
:1023B00067F941EC100B02B0BDEC0E8B02B070BDA2
:1023C000012000F063FA02B0BDEC0E8B02B0BDE854
:1023D000704000F025BAA1489FEDA18B844256DAE7
:1023E0009DED100BB4F1795F0ADA51EC100BFFF799
:1023F0005BFF042808BF00F023FA9DED100BDAE71D
:1024000053EC102B51EC100BFEF7E1F941EC190BDA
:1024100095480621B0EE490AF0EE690A784400F0CA
:102420004FF953EC192B51EC100BFEF7D0F941EC9E
:102430001A0B8E48B0EE490AF0EE690A042178447E
:1024400000F03EF953EC192B51EC100BFEF7BFF9DD
:1024500053EC182BFEF714F941EC100B51EC1A0B4E
:1024600053EC102BFEF725FACDE900019DED000B92
:1024700053EC102B9DED100B51EC100BFEF7A7F950
:102480009DED101B53EC112BFEF7FAF8D2E09DEDF9
:10249000100B51EC100B01F091FD53EC182BFEF7D3
:1024A00093F99FED730BCDE9000153EC102B9DEDDB
:1024B000000B51EC100BFEF78AF941EC190B6E483A
:1024C0000621B0EE490AF0EE690A784400F0F8F807
:1024D00053EC192B51EC100BFEF779F941EC1B0B67
:1024E0006648B0EE490AF0EE690A0421784400F02B
:1024F000E7F853EC192B51EC100BFEF768F953EC8D
:10250000182BFEF7BDF841EC1C0B51EC190B07F032
:102510001DFF41EC180B5A489FED5BABA04222DC3B
:1025200053EC1C2B51EC1B0BFEF7C3F9CDE900015A
:102530009DED000B51EC180B53EC102BFEF747F9F7
:1025400053EC182BFEF79CF853EC1A2BFEF73FF9CF
:1025500053EC1D2BFEF735F953EC1E2BFEF734F927
:1025600041EC100B5FE08DED008B002000909DEDA5
:10257000000B51EC180B53EC102BFEF781F89DED7E
:10258000000B41EC1E0B53EC102B51EC100BFEF723
:102590001EF953EC192BFEF717F953EC1E2BFEF71F
:1025A00088F941EC190B53EC1C2B51EC1B0BFEF77B
:1025B00080F941EC1B0B53EC1A2B51EC190BFEF775
:1025C00006F953EC1D2BFEF7FFF841EC190B53EC09
:1025D0001A2B51EC180BFEF7FAF853EC1B2BFEF7F5
:1025E000F6F853EC192BFEF7ECF89DED000B41ECDF
:1025F000180B53EC1A2B51EC100BFEF7E8F89FED7B
:10260000249B53EC192BFEF7DFF841EC100B51EC37
:10261000180B53EC102BFEF7D4F853EC192BFEF7E4
:10262000D3F841EC100B002D3FF7C5AE51EC100B69
:1026300081F0004141EC100BBDE6000000000000FD
:102640000000F03F00000000075C143326A6913C18
:10265000182D4454FB21F93F0000F07F0000E03FBB
:10266000000000000000F03F3889000046890000AB
:10267000000000000000E03F8A8800009888000009
:102680003333EF3F00000000000000000000004076
:10269000182D4454FB21E93F00B583B09FED060B94
:1026A0000A4601468DED000B6846FEF7EEFA9DEDF9
:1026B000000B03B000BD000000000000000000009F
:1026C00070B504462DED028B4D1E00EBC500B0EE3B
:1026D000408AF0EE608A90ED000B35F0060017D0CE
:1026E00053EC182B51EC100BFEF771F841EC100B6A
:1026F0006D1E04EBC50090ED001B51EC100B53EC6C
:10270000112BFDF7BDFF41EC100B35F00600E7D1B2
:10271000022D36D0042D1CD0062D1CBFBDEC028B23
:1027200070BD53EC182B51EC100BFEF750F894EDE4
:102730000A1B53EC112BFDF7A3FF53EC182BFEF7EC
:1027400046F894ED081B53EC112BFDF799FF41EC73
:10275000100B53EC182B51EC100BFEF738F894EDDE
:10276000061B53EC112BFDF78BFF53EC182BFEF7D8
:102770002EF894ED040B53EC102BFDF781FF41EC88
:10278000100B53EC182B51EC100BFEF720F894EDC6
:10279000021B53EC112BFDF773FF53EC182BFEF7C4
:1027A00016F894ED001B53EC112BFDF769FFBDECFF
:1027B000028B41EC100B70BD2DE9F04782460F4CA7
:1027C00010480D4E0E4F001B4FF0000820F007057B
:1027D0004FF0010900221146504602F0A3F80028EC
:1027E00002D1306810B10020BDE8F0873C60C4E938
:1027F0000058C6F80090EDE7C0290020FC39002001
:10280000BC290020F859002010B553EC102B51ECD6
:10281000100BFDF735FF41EC100B10BD0000000060
:102820009FED050B10B553EC102B51EC100BFEF780
:1028300040F841EC100B10BD00000000000000004B
:102840009FED050B10B553EC102B51EC100BFDF761
:10285000BEFF41EC100B10BD000000000000001096
:1028600002E008C8121F08C1002AFAD17047704759
:10287000002001E001C1121F002AFBD1704700BFF8
:10288000EFF31081084672B67047000001490860F6
:1028900070470000C42900202DE9FF5F82B00021AD
:1028A000DDE90430020DDDF840B0034318D044F6F2
:1028B0001050A2F2FF3242431514119801281FD084
:1028C000A5EB0B00401C5FEA000A4FF000064E4FDC
:1028D000DFF83891B046504615D5CAF1000413E030
:1028E000119801244AA3012801D16FEA0B01029833
:1028F000119AC0E90031C0E9024206B0BDE8F09F7C
:10290000CBF10000DFE704460021404A491842EBC2
:102910000450CDE9001012E0E00707D032463B46F4
:1029200040464946FDF753FF8046894632463B46BE
:1029300010461946FDF74BFF06460F466410002C63
:10294000EAD1DDE90401DDE90023BAF1000F06DA7E
:10295000FDF73DFF42464B46FDF739FF05E0FDF729
:10296000A8FF42464B46FDF7A4FF04460E46002250
:10297000284BFEF78FF803D84FF0FF30014607E0F1
:102980000022254B20463146FDF77AFEFEF750FA2D
:10299000102409E0002C0ADB0A220023FEF7C4F809
:1029A000039B30321A55641E50EA0102F2D1641CB6
:1029B000039AC4F111031444119A012A03D001228D
:1029C00008430DD10AE0084304D000204FF0110B5A
:1029D000119072E7A3EB0B056D1E0DE05B4504DD66
:1029E0004FF0000205F1010504E003DA4FF00002A8
:1029F000A5F10105002AECD002981199C0E9023135
:102A0000C0E9004579E70000000014400000F03FF5
:102A1000300000000000F0430000E03F30380A289A
:102A200001D2012070470020704700002DE9FF4FC0
:102A300095B09B468946064600250FE2252877D1AA
:102A400000242746F84A0121059400E0044316F8C3
:102A5000013F203B01FA03F01042F7D130782A28D9
:102A600011D06FF02F033078A0F13002092A16D868
:102A7000059A44F0020402EB820203EB4202104486
:102A8000761C0590EFE759F8042B0592002A03DA2B
:102A9000504244F40054059044F00204761C30780F
:102AA0002E2816D116F8010F44F004042A280DD060
:102AB0006FF02F023078A0F13003092B09D807EB13
:102AC000870302EB4303C718761CF3E759F8047B2E
:102AD000761C30786C280FD006DC4C2817D068287C
:102AE0000DD06A2814D104E0742810D07A280FD1B0
:102AF0000DE044F400140AE044F4801401E044F4CE
:102B000040147278824202D104F58014761C761C3F
:102B1000307866280BD013DC582877D009DC0028E1
:102B200075D04528F6D04628F4D047281AD19DE123
:102B300018E0632835D0642879D0652812D195E152
:102B4000702873D008DC6728F1D069286FD06E2810
:102B50000DD06F2806D1B5E073282CD0752875D01C
:102B6000782874D05A46179990476D1C75E1C4F3C4
:102B70000250022809D003280DD0D9F800100428EB
:102B80000DD00D6009F1040967E1D9F80010EA17CA
:102B9000C1E90052F6E7D9F800100D80F2E70D7098
:102BA000F0E719F8041B8DF8001000208DF80100E3
:102BB000EA46012003E059F804AB4FF0FF3061070B
:102BC0004FF0000102D40DE008F101018846B9423E
:102BD0000FDA8045F8DB1AF808100029F4D108E074
:102BE00008F1010188468142FADB1AF80810002931
:102BF000F6D105985B46A0EB080721463846179AA0
:102C000000F094FA284400EB080507E04DE029E1C4
:102C10000DE01AF8010B5A4617999047B8F10108D0
:102C2000F7D25B4621463846179A13E142E00A2262
:102C30000092C4F302524FF0000A022A08D059F859
:102C400004CB032A4FEAEC710AD00DE029E02AE018
:102C500009F1070121F00702F2E802C1914609E0FB
:102C60000FFA8CFC4FEAEC71042A03D14FFA8CFC6A
:102C70004FEAEC71002907DA0A460021DCF1000C6A
:102C800061EB02012D2202E0220504D52B228DF8F2
:102C90000420012203E0E20701D02022F7E790465A
:102CA00059E00A2102E010220DE010214FF0000A45
:102CB00000910BE010224FF0000A44F004040827B2
:102CC000009203E008224FF0000A0092C4F302527F
:102CD000022A05D059F804CB0021032A08D009E0C4
:102CE00009F1070121F00702F2E802C1914605E06F
:102CF0001FFA8CFC042A01D10CF0FF0C4FF00008E5
:102D0000220728D5702806D0009B83F0100353EAD1
:102D10000A0305D00EE040228DF80420012208E0CD
:102D20005CEA010206D030228DF804208DF80500FF
:102D300002229046009B83F0080353EA0A030AD15B
:102D40005CEA010201D1620705D530228DF804202A
:102D50004FF001087F1E582804D034A003900EA81D
:102D600002900DE036A0F9E753466046009AFDF761
:102D7000DBFE84460398825C0298401E029002703B
:102D80005CEA0100F0D1029806A9081A00F1200AB5
:102D9000600702D524F4803400E00127574502DDA6
:102DA000A7EB0A0000E0002000EB0A010090059864
:102DB0004144401A0590E00306D45B462146179A29
:102DC000059800F0B3F90544002706E001A85A462B
:102DD000C05D179990476D1C7F1C4745F6DBE003EB
:102DE0000CD55B462146179A059800F09FF90544DB
:102DF00004E030205A46179990476D1C0099481EF0
:102E000000900029F5DC08E0029802995A46007803
:102E1000491C0291179990476D1CBAF10001AAF163
:102E2000010AF1DC65E1000009280100303132338C
:102E300034353637383961626364656600000000F6
:102E400030313233343536373839414243444546E0
:102E50000000000000F058F90544761C3078002886
:102E60007FF4ECAD19B02846BDE8F08F620700D4BE
:102E7000062709F1070222F0070CFCE80223E146CD
:102E800003F000485FEA080C02D00FF2702C0DE04E
:102E90005FEA045C02D50FF2682C07E05FEAC47CAD
:102EA00002D00FF2602C01E0AFF2700C4FF0FF384F
:102EB00023F00043CDF850C065280CD006DC45282F
:102EC00009D046281DD047283DD13DE0662818D0BE
:102ED00067287ED138E00021112F01DB112000E0AE
:102EE000781CCDE9000106A90EA8FFF7D5FCDDE9A5
:102EF0000F010E9A03910021009207F1010A04913B
:102F00004DE04FF000400097CDE9011006A90EA852
:102F1000FFF7C2FCDDE90F0203920E9B119900221C
:102F2000DDF80CA00093049211B9791C00EB010AA2
:102F3000B7EB0A0004D4C0F1FF3007F1010A049096
:102F4000AAEB0700019044E0012F00DA01270021DD
:102F5000112F01DD112000E03846CDE9000106A95E
:102F60000EA8FFF799FCDDE90F010E9A03910021ED
:102F700004910092BA4621070CD40399514500DA16
:102F80008A46BAF1010F05DD009AAAF10101515CF0
:102F9000302908D0B84202DA10F1040F06DA012114
:102FA000CDE9011015E0AAF10101E9E7002805DCEF
:102FB000049901440491AAEB000102E0411C51452F
:102FC00000DD8A460499401A401C01904FF00040F1
:102FD0000290200704D40198504501DBCDF804800D
:102FE00000208DF84F0002980DF14F07B0F1004F0F
:102FF00025D02B200E9002984FF0020800280CDA02
:10300000404202902D200E9007E00A210298FDF721
:1030100075FD3031029007F8011DB8F10001A8F1EB
:103020000108F2DC02980028EFD1791E0E98087092
:10303000307800F0200040F0450007F8020D12A89B
:10304000C01B00F107081498007800B1012000EBC4
:103050000A01019801EBE07105984144401A401EB5
:103060000590E00306D45B462146179A059800F0C8
:103070005DF805441498007818B15A46179990479E
:103080006D1CE00324D55B462146179A059800F095
:103090004DF805441CE00498002807DBDDE9030136
:1030A000884203DD0098405C179901E017993020B1
:1030B0005A469047049805F10105401C0490019878
:1030C000401E019004D12E205A46179990476D1C3E
:1030D000BAF10001AAF1010ADDDC05E017F8010BE5
:1030E0005A46179990476D1CB8F10001A8F10108E4
:1030F000F4DC5B462146179A0598ABE62D000000EC
:103100002B000000200000002DE9F04104460025BE
:103110001E461746880404D405E039462020B047EF
:103120006D1C641EF9D52846BDE8F0812DE9F041FB
:10313000044600251E469046C80301D5302700E00E
:103140002027880404D505E041463846B0476D1C69
:10315000641EF9D52846BDE8F0810A68531C0B604F
:103160001070704770B504460E46002506B10CB9C4
:10317000002070BDA5680DB9A66008E000E02D68CC
:1031800028680028FBD13146284607F064F9012061
:10319000EFE72DE9F04707460D4614461E46DDF8D9
:1031A00020904FF00008C2460FB105B114B90020BD
:1031B000BDE8F087B9F1000F07D0284600F00AFB00
:1031C0008046E06840F4007A0CE03146284600F082
:1031D000A7FA8046B8F1000F01D10020E8E7E068C7
:1031E00020F4007AA08900F4007020B9206A10B1A0
:1031F000206A71688847C4F82080C4F80CA0214672
:103200003846FFF7AFFFD3E710B504466CB1084866
:103210000068A04209D806484068A04205D320466D
:1032200001F028FC08B1012010BD0020FCE70000DF
:10323000C8290020044627480460642001F021FECC
:10324000322001F01EFE032001210A4600231D4604
:103250001E4600BF4FF0A04C674641EA420C4CEAC4
:10326000830C4CEA052C4CEA064807F5E06C4CF858
:10327000208000BF00BF00BF00BF4FF0A0410A4642
:10328000012303FA00F1C2F8081500BF00BF4FF494
:10329000FA6001F0F6FD00BF00BF00BF00BF00BF35
:1032A000BFF34F8F00BF00BF00BF0B48006800F4A2
:1032B000E0600A490843001D0749086000BF00BFDD
:1032C00000BFBFF34F8F00BF00BF00BF00BF00BFF4
:1032D000FDE70000442900200CED00E00000FA05A5
:1032E00010B503460C4600BF0B48807808B908208B
:1032F00010BD00BF0AB90720FAE70BB90720F7E7AE
:103300001868007C08B10820F2E7196800200874EA
:103310004C744A6100BFEBE72032002010B506F084
:1033200035F900200F49087048700B208870002084
:103330000D4908600D4908700D4908701420FEF70A
:10334000FFF807211420FEF71FF91420FEF704F9F7
:10335000002006F0F1F806F0E9F8064908600020C0
:1033600010BD00002032002070290020802900209C
:1033700081290020742900202DE9F04104460E46E1
:103380001746254600BF1048807810B90820BDE8D0
:10339000F08100BF0CB90820F9E7052E01D2072003
:1033A000F5E7686908B90820F1E7687C012801D1D0
:1033B000304600E0002080463B46424631462846E3
:1033C00007F04CF9E3E700002032002010B5044676
:1033D000204606F06DFD10BD70B5044625460E482A
:1033E0008068B0B1ADB9FFF74AFA06460A480068EE
:1033F0000A490860084840684FF0E021C1F804011C
:103400000020054988601EB900BF62B600BF00BF3A
:1034100000BF00BF70BD00002C33002000E100E0C1
:10342000014609B1086808B90020704702E08868C1
:10343000401C886041B1D1E90120904204D28A68E1
:103440000868805C2028F2DDD1E90120904202D199
:103450008868401E88600846E7E7000070B52DEDDB
:10346000028B82B004460D46B0EE408AF0EE608AD0
:10347000B0EE480AF0EE680A00F030F80646002088
:10348000084B3246294600902046FFF782FE20B1C5
:10349000304602B0BDEC028B70BD304600F082F8C1
:1034A0000020F6E704290020F8B505460E4614462C
:1034B000204600F05DF807460020074B3A463146AB
:1034C00000902846FFF765FE08B13846F8BD38463B
:1034D00000F068F80020F9E70429002010B52DED70
:1034E000028BB0EE408AF0EE608A164800F08FF84A
:1034F000044614B30820E06084ED068B9FED120BA8
:1035000053EC102B51EC180BFDF7C4FA03D86FF0F5
:103510000040606111E09FED0E0B53EC102B51EC5D
:10352000180BFDF79FFA03D84FF00040606104E0EC
:1035300051EC180BFDF74AFA60612046BDEC028B96
:1035400010BD0000042900200000C0FFFFFFDF4184
:10355000000000000000E0C110B5044800F057F87A
:1035600004460CB14020E060204610BD0429002034
:1035700070B505460A4800F04AF804466CB11020C0
:10358000E0600749284600F0CBF82061206920B9A7
:10359000204600F007F8002070BD2046FCE7000040
:1035A0000429002070B50446002522E02568A08982
:1035B00000F4807020B9A06810B1A068FFF7F2FF96
:1035C000A08900F4807028B9206918B10A4A2069DE
:1035D00051688847A08900F4007028B9206A18B1A2
:1035E000054A206A51688847034841682046884751
:1035F0002C46002CDAD170BD0429002070B5044699
:103600000D4600222946204600F020FF70BD70B50F
:10361000044628202168884705461DB128212846F0
:10362000FCF729FE284670BD10B50446002211465D
:10363000204600F001F810BD2DE9F04389B00446A2
:103640000D4617461C2102A8FCF715FE0026002097
:103650002C490860486004B934E002942046FCF725
:1036600015FE401C039000200490274A07CA06ABB1
:1036700007C32548FFF7CBFF064606B922E002A89C
:1036800006F046FE8146FFF7CBFE804641463046B7
:1036900002F0FAFC00B915E05FB102A8FFF7C0FE26
:1036A000DDE90310884203D204990298405C00B11E
:1036B00008E01DB10499029808442860304609B01A
:1036C000BDE8F08316B13046FFF76CFFC4B100943B
:1036D00000200190DDE90310884202D20498019095
:1036E00004E0039810B10398401E01901DB1DDE97C
:1036F0000001084428600348DDE9001206C000BF4D
:103700000020DCE7FC2800200429002010B5044636
:10371000024A0021204602F001FE10BD04290020CB
:103720002DE9F04104460D460026002714B900207B
:10373000BDE8F0812046FCF7A9FD461C304629680B
:10374000884707460FB90020F2E73246214638463F
:10375000FCF778FD3846EBE710B5042006F00AFCCC
:1037600010BD10B5022006F005FC10BD10B53422C6
:1037700004490548FCF766FD07F096FA032006F0B9
:10378000F9FB10BD10310020A530002070B50446B3
:103790000D4604B10DB9012070BDAC4201D100202D
:1037A000FAE705E0207808B90020F5E7641C6D1CF5
:1037B0002078FCF741FD06462878FCF73DFD86425F
:1037C000F0D02078FCF738FD06462878FCF734FD69
:1037D000301AE1E7704700004FF0FF31054A42F828
:1037E0002010082804DBFF23A0F1080150325354B5
:1037F00070470000943100200146024850F8210033
:1038000070470000943100202DE9F04F03460C462C
:103810004FF0FF390AB1002000E0082084460AB1C9
:10382000082000E00C208046614624E0154850F84E
:103830002100401CF0B91D460846274616464FFA9F
:1038400080FBDFF840A00AF1300A0AF805B0DFF883
:1038500034A04AF820704EB94FFA85FBA0F1080A4F
:10386000DFF820E00EF1500E0EF80AB000BF4FFA5C
:1038700081F902E0491C4145D8D300BF4846BDE864
:10388000F08F0000943100200146014840567047F7
:10389000C4310020014639B10448884204D80448A4
:1038A000884201D9012070470020FCE7C829002088
:1038B000D82900200A49496C81B10949096C084A94
:1038C00002EBC1010160114691F84010491C01F062
:1038D000070111641146496C491E5164704700008C
:1038E000383400200178022902D0017803290BD155
:1038F00006490A6C817D1144044A116411464A6CE0
:10390000817D511A014A516470470000383400200B
:1039100010B535210748FCF7AEFC3020054908708A
:1039200044F68A010348C0F827100349C0F82B1059
:1039300010BD0000A4300020FE15020070B5054641
:103940000DB9094C01E0084C083409E0204601F0AB
:1039500099F8064606B904E028467168884700BF12
:10396000F4E700BF70BD00008831002010B507F0FB
:1039700015F810BD70B506460C461546284605F0EC
:1039800005FFA1B2304607F01FF870BD70B50546BF
:103990000C46A1B2284606F0F3FF70BD2DE9F047B2
:1039A00082461F480068002836D01D480068056818
:1039B00005F0BCFD07461B4804682146384606F062
:1039C00091FDC61C1848007808B905F0C1FDAE424B
:1039D00001D2284600E03046044424F07F442046CB
:1039E00005F09EFD05F0A2FD80463946404606F0F2
:1039F00079FD00F103093946204606F073FD814543
:103A000009D905F093FD814605F08AFD2F2000F0CD
:103A10006EF806F09FFE01E005F0B8FDBDE8F08706
:103A20007029002074290020822900202DE9FF4FF1
:103A300003460C46002047E0225CFF2A3ED0C2F33A
:103A4000C01922F080014DF82010B9F1000F0DD0FF
:103A50005DF8201000BF4FF0A0452E46012707FA61
:103A600001F5C6F8085500BF00BF0DE05DF8201055
:103A700000BF4FF0A0452E46012707FA01F5C6F812
:103A80000C5500BF00BF00BF5DF8201001252E4679
:103A90000027BC46B84600BF4FF0A04BDA4645EAC7
:103AA000460B4BEA870B4BEA0C2B4BEA084E0AF508
:103AB000E06B4BF821E000BF00BF03E04FF0FF31A7
:103AC0004DF82010411CC8B20428B5DB6D461A68B9
:103AD000002107E055F8217002F5AC6646F8217028
:103AE0004E1CF1B20429F5DB00BFBDE8FF8F0021B9
:103AF0000CE0002201E000BF521C0A2AFBD300BFE9
:103B000000BF00BF00BF00BF00BF491C8142F0D30F
:103B1000704770B506460D460EB1012070BD28797C
:103B200020B1012809D0022813D10FE0284603F064
:103B3000DDFA0446022028710DE0284600F04AFA1A
:103B400004460A2C01D141F61D5404E041F61D54EF
:103B500001E00F2400BF00BF2046DFE70146144804
:103B60000078144A127890421DD011480078401C09
:103B70000F4A107010460078022801D10020107002
:103B80000D480B4A127850F8220008600B4A08686A
:103B900012681044094A10601046006820F07F4007
:103BA0001060012070470020086000BFFAE70000A5
:103BB00080290020812900207829002074290020F4
:103BC0002DE9F04104460D46002600270CB120687F
:103BD00010B90020BDE8F081606828B1D4E9011077
:103BE000884201D30020F5E7B5F1004F01D3002052
:103BF000F0E7A068401C05446068A84203D3A168B0
:103C000020680844E6E7206908B10020E2E7B5F142
:103C1000804F07D3B5F1004F02D26FF0004702E0AA
:103C20000020D7E76F00206A60B13946226A206819
:103C300090470646E6B9E169206888470020606041
:103C40002060C7E73846A1698847064636B9E1696A
:103C500020688847002060602060BBE72EB1A06824
:103C6000421C30462168FCF7EDFAE169206888477C
:103C700067602660A0683044ACE710B50446A089B0
:103C800028DF10BD13480078062820D11148001DF8
:103C9000007800F00F00D0B90E480830007800F02E
:103CA000F000302801D1012070470A480830007820
:103CB00000F0F000402801D10120F5E70548083068
:103CC000007800F0F000502801D10120ECE700203E
:103CD000EAE70000E00F00F013480078062820D142
:103CE0001148001D007800F00F00D0B90E480830D0
:103CF000007800F0F000302801D1012070470A4818
:103D00000830007800F0F000402801D10120F5E7EC
:103D100005480830007800F0F000502801D101205B
:103D2000ECE70020EAE70000E00F00F00A48007826
:103D300006280ED10848001D007800F00F0040B999
:103D400005480830007800F0F000302801D101204B
:103D500070470020FCE70000E00F00F013480078F7
:103D6000062820D11148001D007800F00F00D0B9BE
:103D70000E480830007800F0F000302801D1012012
:103D800070470A480830007800F0F000402801D160
:103D90000120F5E705480830007800F0F0005028D1
:103DA00001D10120ECE70020EAE70000E00F00F07D
:103DB0000A48007806280ED10848001D007800F057
:103DC0000F0040B905480830007800F0F0003028B6
:103DD00001D1012070470020FCE70000E00F00F057
:103DE00013480078062820D11148001D007800F003
:103DF0000F00D0B90E480830007800F0F0003028ED
:103E000001D1012070470A480830007800F0F00026
:103E1000402801D10120F5E705480830007800F07E
:103E2000F000502801D10120ECE70020EAE7000073
:103E3000E00F00F00A48007806280ED10848001D5F
:103E4000007800F00F0040B905480830007800F015
:103E5000F000302801D1012070470020FCE700006D
:103E6000E00F00F00A48007806280ED10848001D2F
:103E7000007800F00F0040B905480830007800F0E5
:103E8000F000302801D1012070470020FCE700003D
:103E9000E00F00F00A48007806280ED10848001DFF
:103EA000007800F00F0040B905480830007800F0B5
:103EB000F000502801D1012070470020FCE70000ED
:103EC000E00F00F00278072A34D2DFE802F0330472
:103ED00007102029300000220A702CE001220A700D
:103EE00003898B818388CB81C2688A6023E00222A8
:103EF0000A7003898B818388CB81C2688A60027CC7
:103F0000062A01D1012300E000230B7413E00322F1
:103F10000A70C3888B810389CB81C2688A600AE0FA
:103F200004220A70C3888B810023CB8103E0052221
:103F30000A7000E000BF00BF7047000070B5054682
:103F4000002409E0064850F8240020B1044850F845
:103F5000241028468847641C082CF3D370BD000049
:103F6000A0330020F0B5034600241FE0124E306855
:103F700006689E4203D90668F61A06601AE00668CB
:103F80009B1B06683444002606600B4E35680A4FBA
:103F9000C6693E60C66846B10E1926F07F46466087
:103FA000C66886601668C661156000BF0248006872
:103FB0000028DBD100BFF0BD7029002082B0CDE920
:103FC000000121F0004001909DED000B02B051EC8A
:103FD000100B70473EB504460A4B6A460021A01DEF
:103FE00003F040F8054635B9064A9188019803F078
:103FF00009F9054603E003480021016041602846B5
:104000003EBD000098290020024909788143014AF9
:104010001170704788290020014604480078084044
:1040200008B1012070470020FCE70000882900202B
:10403000024909780143014A11707047882900201C
:10404000F8B505460C4616461F461C48007800F099
:10405000010008B90120F8BD2846FFF71BFC08B98C
:104060000220F8E70CB90320F5E7C4F30B0008B110
:104070000620F0E72868A04204D804EB06306968FF
:10408000884201D90520E6E70EB90420E3E7684637
:1040900002F01CFD08B90720DDE700984760009892
:1040A0000560022000990872C4F30F3000998881DE
:1040B0000098068202F0C6FD0020CCE7842900208B
:1040C00070B505460C46204602F06AFD70BD000042
:1040D0002DE9F84305460C4616461F46DDF82080BC
:1040E0001F48007800F0010010B90120BDE8F883F6
:1040F0002846FFF7CFFB08B90220F7E706B10CB955
:104100000320F3E706F0030010B904F0030008B140
:104110000620EBE72868A04204D804EB8701686812
:10412000884201D20520E1E70FB90420DEE76846A6
:1041300002F0CCFC08B90720D8E70098C0F804804A
:10414000009805600120009908720098C6600098E8
:1041500004610098878202F075FD0020C6E7000028
:104160008429002070B505460DB1012070BD1848A6
:10417000007B18B100201649087301E000F0D4F864
:104180001348007808281DD2DFE800F01C04080C52
:10419000101C141800F03CF8044615E000F0B2F8CA
:1041A000044611E000F08EF804460DE000F044F8FB
:1041B000044609E000F01CF9044605E000F028F987
:1041C000044601E00F2400BF00BF2046CEE70000F8
:1041D000A03400200C480089401C0B4908810020B5
:1041E0004880087300BF0CE0084901EB0011097812
:1041F00009B9012200E0002203490A310A54411C96
:1042000088B20228F0DB7047A03400208034002000
:1042100010B5084800F032F840B900200549891E61
:1042200008704880486041F61D5010BD00F06AF8E3
:10423000FBE70000A234002070B50D4845880D480A
:1042400000EB0510808968B90A4800EB05100023CF
:10425000012241680848FFF7F3FE044604200449A0
:10426000087002E000F08CF80446204670BD0000A3
:10427000A034002080340020C829002010B5014659
:104280000022002015E00D4B1B5C83B100240B4B7A
:104290001C540B4B03EB00139B8943B9084B03EBF6
:1042A00000139B7B012B02D10880012203E0431CF9
:1042B00098B20228E7DB00BF104610BDAA340020E8
:1042C00080340020F8B50C4844680C4800680B495D
:1042D000898800EB81056088C01C86B203200649EE
:1042E000087000200090084633462946426804487A
:1042F000FFF7EEFEF8BD0000A0340020902900205A
:10430000C829002010B507494888091D02F04AFF56
:1043100018B1FFF7D7FF044602E0FFF78DFF044610
:10432000204610BDA034002010B51448007808289D
:1043300020D2DFE800F0041F1F0A1016171BFFF73A
:1043400049FF01200D49087015E000F06DF80220CA
:104350000A4908700FE000F029F8062007490870A4
:1043600009E000BF07200549087004E00120034967
:10437000087000E000BF00BF10BD0000A0340020A6
:1043800010B50520064908700220064988800846B5
:104390000023012201680448FFF752FE10BD00000F
:1043A000A034002090290020C82900200D49086869
:1043B0000D4949880D4A02EB01114968094A11600B
:1043C00009494988094A02EB011148600549898871
:1043D000054A5288054B03EB021211810221014A62
:1043E0009180704790290020A03400208034002064
:1043F00010B50620044908704988044A02EB0111EF
:10440000486801F069FB10BDA03400208034002012
:1044100010B50720034908700020486001F06CFBCC
:1044200010BD0000A0340020054A50684288D21C0C
:1044300091B2044A92880A44024B9A807047000065
:10444000A0340020902900202E2070472DE9F04153
:1044500005460E461746002405B116B90020BDE8F2
:10446000F081AC685FB100E024688CB1206A78B15B
:104470003046216AFBF711FF0028F5D108E000E083
:1044800024682CB13046216AFFF780F90028F7D163
:104490000CB1206A08B90020E1E72046DFE7000000
:1044A0000148006870470000F82800200FB410B5DC
:1044B0002DED108B342212A94A48FBF7C3FE494860
:1044C000806800EE100AB5EEC00AF1EE10FA07D1CE
:1044D0004448C06820B94FF480504349088044E004
:1044E0004049C868FCF765FA41EC1D0B3D488168FE
:1044F0000846FCF7A3FA41EC1F0B9FED3C0B53EC75
:10450000102BFCF764F941EC1E0B53EC1D2BFCF750
:104510005EF941EC1C0B9FED370B53EC102BFCF7B5
:1045200056F941EC1B0B9FED350B53EC102BFCF7B0
:104530004EF941EC1A0B9FED330B53EC102BFCF7AB
:1045400046F941EC190BFCF7BDFA00EE100A2548BC
:10455000406800EE900AF8EE600A80EE208ABCEE19
:10456000C80A10EE100A204908801F48028827A1B7
:104570000020FDF7DBF91B48406818B94FF448608C
:10458000184948601748406817490988484300EEB1
:10459000100AB8EE400ADFED210A80EE801AB0EE74
:1045A000418A1F4880ED008A0068FCF747FA41EC19
:1045B000190B53EC192B1BA10020FDF7B7F9094883
:1045C000D0F826201CA10020FDF7B0F90548D0F84E
:1045D0002A201EA10020FDF7A9F9BDEC108B10BC0C
:1045E0005DF814FBD930002020290020083D9B55A0
:1045F0009F1B304000000000000010400000000041
:104600000000304000000000006AF8406866636FF8
:104610006E73742069732025640A000000803B4497
:104620002429002020706172616D206B70206973F5
:104630002025660A0000000020706172616D206B09
:10464000752069732025640A0000000020706172E3
:10465000616D206B69612069732025640A00000088
:10466000124800681249884206D1124812490A6865
:1046700002604968416018E00C4800680C49491C18
:10468000884206D10B480D490A68026049684160BA
:104690000BE00648006806490E31884205D10548FE
:1046A00007490A68026049684160704700010010CC
:1046B000322805004A290020522900205A290020CA
:1046C00062290020014688884FF6FF72904203D08D
:1046D000088808B1012070470020FCE770B5044647
:1046E0000D460A488079A0420ED11E2000F01EFC23
:1046F0000649887901F0D7F830B90449887900F083
:104700003BFD034800F07AFF70BD00004A290020FD
:10471000E4AC000000B58DB0342206496846FBF7D2
:1047200091FD054B054A0649064804F07FFA0DB095
:1047300000BD0000103100207D9A00005D9E000049
:10474000759E00008D9700002DE9F04106460C464D
:104750000F272EB10120FFF757FC0120BDE8F081A3
:10476000207930B101280AD0022833D0032864D13F
:104770003EE001F0C1F90746012020715EE04FF0F4
:104780000008002516E0324800EB051000780228EA
:104790000ED12F4901EB0511486801F09DF907463C
:1047A00000202B4901EB051108704FF0010803E0D0
:1047B000681C85B2022DE6DB00BFB8F1000F08D1FE
:1047C0000220FFF735FC0120FFF71EFC41F61D50CB
:1047D000C4E733E01F480023012201681E48FFF7A9
:1047E0002FFC074602201B4988800020207125E00D
:1047F0001849086801F070F90746184845881548B7
:10480000D0F80080124800EB05104068114908609C
:104810000F4800EB0510C0F80480084680880C495A
:1048200001EB0511088102200A498880002008490F
:1048300001EB05110870207100E000BF00BF27B137
:104840000120FFF7E1FB0E2088E7002086E700004B
:104850008034002090290020C8290020A0340020A6
:10486000F8B52948007800B9F8BD00252748006848
:1048700008B9012000E00020064600BFEDB9244839
:10488000007800B1F0E7684648DF0446052C01D106
:10489000012511E034B100BF1E4AB5212046FEF7C4
:1048A000C9FC09E0009800F025FC1B48006818B11D
:1048B000194900980968884700BFEEB91448007884
:1048C00000B1D1E715480088009069461448006897
:1048D00061DF0446052C01D101260CE034B100BF94
:1048E0000C4ADD212046FEF7A5FC04E00C480068D8
:1048F00006490968884700BF0DB106B100E0BDE771
:1049000000BF00BFB0E70000AC290020B82900209C
:10491000AD290020E8AD0000A8290020B42900201E
:10492000B02900202DE9F0410B3020F00706104D92
:1049300019E02068B04215D3B0420AD9871B201D68
:10494000D4F80480FBF77EFCA019C0E90078286049
:1049500004E060682860201DFBF774FC201D2660C1
:10496000BDE8F081251D2C68002CE2D10020F7E77E
:10497000BC2900202DE9F04704460E46904600274A
:1049800022E0384601F05CF80546384601F05FF851
:1049900081462046294642580AB1012200E0002201
:1049A00082B14846D4F80413014009B1012100E066
:1049B000002139B12946204601F04EF82846D6E9B3
:1049C00000219047781CC7B24745DADBBDE8F08785
:1049D00070B505460C464FF48871284600F0D4FFA8
:1049E00068B14FF48871284600F0D5FF607900F077
:1049F000040020B1206810B10120216888474FF4DD
:104A00008A71284600F0C0FF68B14FF48A712846C9
:104A100000F0C1FF607900F0080020B1206810B1FB
:104A20000220216888474FF48E71284600F0ACFFC1
:104A300068B14FF48E71284600F0ADFF607900F048
:104A4000100020B9206810B10020216888474FF479
:104A50008271284600F098FF58B14FF482712846C1
:104A600000F099FF01202071206810B10320216817
:104A7000884770BD014601F0030008B90120704766
:104A80000020FCE70146086808B102680A60704728
:104A900010B500F05BF901F0C5FB10BD10B588B092
:104AA0003C49C87800F0C4FE3A49087800F0C0FEDE
:104AB0003849087800F0E1FE4FF4487000F0D8F96A
:104AC0003449087800BF4FF0A0410A46012303FA99
:104AD00000F1C2F8081500BF00BF002000902D496A
:104AE000019088781A46194600F05AFE29498878BC
:104AF00000F0C3FE00200090264901904878012371
:104B00001A46194600F04CFE2249487800F0B5FEDE
:104B1000214A07CA05AB07C31E48807840F08000D1
:104B20008DF8140000BF1D4A05A91D4800F09CFC2B
:104B300004463CB100BF1BA240F2C9112046FEF75B
:104B400079FB00BF00BF144A0C3207CA02AB07C38F
:104B50001048407840F080008DF80A0000BF194AE4
:104B600002A9194800F080FC04463CB100BF0DA228
:104B700040F2DB112046FEF75DFB00BF00BF0020C6
:104B800001F0BEFB002000F0D3F8C82000F070F95F
:104B900008B010BD4A290020CCAC00009D6900007F
:104BA000842100202E2E5C6D6F75646C655C6770CF
:104BB000696F5C6B65795F6C65645F72656C617968
:104BC0002E630000896900008C2100202DE9F0414E
:104BD000064600274748D0F8008078E016B13446F2
:104BE000E66947E04448007800EB40014248001D78
:104BF00000EBC105001F0078401C3F4908700846C3
:104C000000788978884202D100203B4908706C689E
:104C1000287801281AD0022802D0032817D107E0EB
:104C2000686805F0D7FC00B10127002020744EE031
:104C300007E030490868002101742E4AC1691160FB
:104C400000BF2C4800680028F3D140E000E03EE0BF
:104C500000BF207C00B13AE0A8686060E868A0600E
:104C60002869E0606869A0612448007808B10020E4
:104C7000606000BF224960680968401A20F07F40E8
:104C80002049884208D21E496068096805F02AFC5C
:104C9000A168084420600FE019486168006805F0C9
:104CA00021FC0546A068A84203D9A068401B2060EB
:104CB00001E00020206000BF00206060A0600120B3
:104CC00020740020E061204605F050FC00BF002E5B
:104CD00084D109480078084949788842F8D11FB939
:104CE00004480068404502D00120BDE8F081002062
:104CF000FBE70000702900202032002083290020DB
:104D000074290020FFFF7F00FFF7AAFCFEF706FBD7
:104D100005F0A4FBFCF74CFCFFF7C0FE012005F0FA
:104D200029F904E0012003F021F9FFF7B1FEF9E7CA
:104D300010B5044604480068A04204D0024804604C
:104D4000204605F0AFF910BDD828002010B5344832
:104D5000007800285FD03248007D052859D2DFE86E
:104D600000F0031621343F002D48008918B90220B5
:104D70002B4908754EE02A494868FFF7D9FFFFF72D
:104D80008FFB2849086001202549087542E0244826
:104D900001892448006805F0B0FB10B102202049C9
:104DA000087537E01E48008A18B904201C490875A8
:104DB00030E01B49C868FFF7BBFFFFF771FB1949DB
:104DC000086003201649087524E01548018A154833
:104DD000006805F092FB10B104201149087519E034
:104DE0000F48408A4FF6FF71884203D100200C49DA
:104DF00008750FE00A48408A401E09494882084663
:104E0000408A10B90020087002E0002004490875AB
:104E100000E000BF02E00020FFF78AFF10BD0000A5
:104E2000E42D0020DC28002030B502460B46D408D3
:104E300002F00702012090401D5D284030BD014670
:104E40004FF08040405808B1012070470020FCE737
:104E500008B500224FF080410A500958009100BF68
:104E600008BD0000014908607047000008030040C9
:104E700010B504464FF47A7104FB01F000F00AF813
:104E800010BD10B504464FF47A7104FB01F000F038
:104E9000E5F810BD00B9704700BF00BF00BF00BFFC
:104EA00000BF00BF00BF00BF00BF1E4909681E4A07
:104EB000914200D130E000BF00BF00BF00BF00BF83
:104EC00000BF00BF00BF00BF00BF00BF00BF00BFEA
:104ED00000BF00BF00BF00BF00BF00BF00BF00BFDA
:104EE00000BF00BF00BF00BF00BF00BF00BF00BFCA
:104EF00000BF00BF00BF00BF00BF00BF00BF00BFBA
:104F000000BF00BF00BF00BF00BF00BF00BF00BFA9
:104F100000BF00BF00BF00BF401E00D0BDE700BF04
:104F2000B9E700006C2900200024F40000B97047A4
:104F300000BF00BF00BF00BF00BF00BF00BF00BF79
:104F400000BF1E4909681E4A914200D130E000BFEF
:104F500000BF00BF00BF00BF00BF00BF00BF00BF59
:104F600000BF00BF00BF00BF00BF00BF00BF00BF49
:104F700000BF00BF00BF00BF00BF00BF00BF00BF39
:104F800000BF00BF00BF00BF00BF00BF00BF00BF29
:104F900000BF00BF00BF00BF00BF00BF00BF00BF19
:104FA00000BF00BF00BF00BF00BF00BF00BF00BF09
:104FB000401E00D0BDE700BFB9E700006C2900200B
:104FC0000024F40000B9704700BF00BF00BF00BF5D
:104FD00000BF00BF00BF00BF00BF1E4909681E4AD6
:104FE000914200D130E000BF00BF00BF00BF00BF52
:104FF00000BF00BF00BF00BF00BF00BF00BF00BFB9
:1050000000BF00BF00BF00BF00BF00BF00BF00BFA8
:1050100000BF00BF00BF00BF00BF00BF00BF00BF98
:1050200000BF00BF00BF00BF00BF00BF00BF00BF88
:1050300000BF00BF00BF00BF00BF00BF00BF00BF78
:1050400000BF00BF00BF00BF401E00D0BDE700BFD3
:10505000B9E700006C2900200024F40000B9704773
:1050600000BF00BF00BF00BF00BF00BF00BF00BF48
:1050700000BF1E4909681E4A914200D130E000BFBE
:1050800000BF00BF00BF00BF00BF00BF00BF00BF28
:1050900000BF00BF00BF00BF00BF00BF00BF00BF18
:1050A00000BF00BF00BF00BF00BF00BF00BF00BF08
:1050B00000BF00BF00BF00BF00BF00BF00BF00BFF8
:1050C00000BF00BF00BF00BF00BF00BF00BF00BFE8
:1050D00000BF00BF00BF00BF00BF00BF00BF00BFD8
:1050E000401E00D0BDE700BFB9E700006C290020DA
:1050F0000024F40010B5044614B90020FEF71EFC8D
:1051000010BD000070B50B4601461A46002907DAAB
:105110005407260E104C01F00F052D1F665503E0B5
:105120005407250E0D4C655400BF00BF00F01F0250
:10513000012191400A4A440942F8241000BF00BFEF
:1051400000F01F02012191404209920002F1E02289
:10515000C2F8001100BF70BD18ED00E000E400E0EF
:1051600080E200E00146C1F3073250B270470146C9
:10517000C1F3073250B2704770B50546284601F0BA
:105180002FF820B10021284600F05EFB18E02846E9
:1051900001F032F8A0B12846FEF776FB044620461F
:1051A000084951F8201021F00102064941F8202059
:1051B00000BF012101FA04F00349086000BF00BFED
:1051C00070BD000010650040086300402DE9F04705
:1051D00006460D46304601F003F8E0B13046FEF7D2
:1051E00053FB083822490F5CBC11032C08D1304610
:1051F00000F065FB08B1032000E00220804605E0D6
:10520000012C01D1022000E00320804641463046B7
:1052100000F01AFB2AE0304600F0EEFF30B33046D3
:10522000FEF732FB0446A00000F5807087B22046EE
:10523000104951F8201041F001020E4941F8202098
:1052400000BF384600F078FB7DB13046FEF71CFB0E
:105250008146FEF7D1FA8046B8F1000F04D0012153
:1052600001FA04F000F082FB00BF00BFBDE8F08748
:10527000E4310020106500402DE9FC4704460E464D
:1052800017464FF00008204600F09CFF10B14FF089
:10529000080855E0F27839462046FEF7B5FA05468B
:1052A000681C002849D0B07880B100BF00BF4FF023
:1052B000A042104600F5E06252F8242022F00201DC
:1052C00000F5E06242F8241000BF0CE096F801906F
:1052D000002000904B46024601460190204600F017
:1052E00087FA00BF00BFF078D0B13078164951F886
:1052F0002510164A1140144A42F82510114651F85B
:1053000025104FF4F85202EA04224FF4403303EA26
:1053100000431A4311430C4A42F8251000BF0EE027
:10532000A5F108000A49085C317840EA811042B2D0
:10533000A5F1080006490A5401E04FF0040800BF37
:105340004046BDE8FC87000010650040FFE0FCFF20
:10535000E431002070B504462046FFF70DFF2046DB
:1053600000F04AFF28B12046FEF78EFA054600F00D
:1053700003FB204600F050FA2046FEF785FAC5B23E
:105380002846FEF729FA204600F046FF70BD0000CF
:1053900070B5164890F8540010B10825284670BD25
:1053A000002404E0204600F037FF601CC4B2202C2B
:1053B000F8DB002404E02046FEF70EFA601CC4B2BD
:1053C0000C2CF8DB07210620FFF79CFE4FF4BE7083
:1053D00000F0B2FA4FF0004000F0C8FA0120034993
:1053E00081F8540000252846D9E7000094310020B8
:1053F00070B50446204600F0FFFE60B12046FEF77F
:1054000043FAC5B22846FEF7E7F92046FEF73CFA14
:10541000054600F0B1FA204600F0FEFE204600F0FE
:10542000FBF970BD10B5002414E020460D49095663
:10543000891C09B9012100E0002119B12046FFF7BC
:10544000D7FF06E0204600F0BDFE10B12046FFF772
:1054500081FF641C202CE8D300200249303981F8F8
:10546000540010BDC43100202DE9F04704460D461C
:1054700090462079284901EBC006307918B10827F9
:105480003846BDE8F087C6F8008029462046FEF77A
:10549000CDFA20680121C0F8001500BF6979AA790A
:1054A0002B892068C0F80C15C0F80425C0F8083511
:1054B00000BFA97AEA7A206841EA0223C0F81035D1
:1054C00000BF0021206800F091FA0021206800F060
:1054D00069FA4FF48E71206800F05DFA4FF488711C
:1054E000206800F058FA4FF48A71206800F053FAEF
:1054F0004FF48271206800F04EFA306830B12068B5
:10550000FFF735FE81462979FFF7FCFD0120307158
:1055100000273846B5E70000103200202DE9F05F83
:105520000446894615461E4620791C4901EBC00AEF
:105530004A460021206800F03BFA4A4601212068D3
:1055400000F036FA05F00107AB4605EBDB7207EB1E
:10555000620291B2206800F028FA06F0010010B152
:105560004FF010080AE006F0020028B10FB1082041
:1055700000E00420804601E04FF00008414620682A
:1055800000F034FA0FB10C2000E008200346F2B21C
:105590005146204604F011FFBDE8F09F1032002074
:1055A0002DE9F04105460C4616461F46204600F000
:1055B0004EFA804627B14146286800F057FA03E0CA
:1055C0004146286800F04FFA286800F5A86141F8C4
:1055D000246000BFBDE8F08110B5044610212068AA
:1055E00000F04DFA0120217901EB4101024A02EB62
:1055F0008101087210BD0000EC31002010B5044696
:105600000021206800F03BFA0220217901EB4101E2
:10561000024A02EB8101087210BD0000EC3100204B
:105620002DE9F04105460E4617461C46DDF8188068
:105630004FF48072B2400123B34042EA030128686C
:1056400000F017FA2868D0F800122143C0F80012C1
:1056500000BF43463A4631462846FFF7A1FFBDE862
:10566000F08100002DE9F04704460D46914620796F
:1056700000EB4000254901EB8006307A18B108277D
:105680003846BDE8F087B9F1000F02D10727384648
:10569000F7E7C6F80090686870604FF000080BE00C
:1056A000404600F0CDF982465146206800F0D4F91A
:1056B00008F1010000F0FF0860794045F0DC206847
:1056C000FFF750FD8246E978FFF71CFD69782068F6
:1056D000D0F8042561F30102C0F8042500BFA978C1
:1056E0002068D0F8082561F30102C0F8082500BF42
:1056F00029782068D0F8102561F30302C0F810253E
:1057000000BF0120307200273846BAE7EC31002094
:1057100070B504462068FFF725FD054600BF05F07B
:105720001F010120884012496A0941F8220000BF88
:1057300000BF4917206800F09CF94FF0FF31206846
:1057400000F091F9207900EB40000A4901EB80005C
:10575000007A022802D12046FFF73EFF002021797F
:1057600001EB4101034A02EB8101087270BD0000A8
:1057700080E100E0EC310020F0B5DDE9054500BF37
:105780004FF0A0473E4641EA420747EA830747EA0F
:10579000042747EA054C06F5E06747F820C0F0BD4E
:1057A000F0B5DDE9054500BF4FF0A0473E4641EAB0
:1057B000420747EA830747EA042747EA054C06F50C
:1057C000E06747F820C0F0BDF0B5DDE9054500BF52
:1057D0004FF0A0473E4641EA420747EA830747EABF
:1057E000042747EA054C06F5E06747F820C0F0BDFE
:1057F000F0B5DDE9054500BF4FF0A0473E4641EA60
:10580000420747EA830747EA042747EA054C06F5BB
:10581000E06747F820C0F0BD1CB5044600200090AA
:1058200003460122014601902046FFF7E1FF1CBD1F
:105830001CB5044600200090034601221146019049
:105840002046FFF7ADFF1CBD10B50A4600BF4FF064
:10585000A043194601F5E06353F8203023F44034A7
:1058600001F5E06343F8204053F8203043EA024456
:1058700001F5E06343F8204010BD00BF4FF0A041A8
:105880000A46012303FA00F1C2F80C1500BF704765
:1058900000BF4FF0A0410A46012303FA00F1C2F80D
:1058A0000C1500BF7047014600BF4FF0A0400246F4
:1058B00000BFD2F81005C84000F001007047014653
:1058C00000BF4FF0A040024600BFD2F81005C8400C
:1058D00000F00100704700BF4FF0A0410A460123CD
:1058E00003FA00F1C2F8081500BF704700BF4FF07F
:1058F000A0410A46012303FA00F1C2F8081500BFCF
:105900007047000038B50B46074C246800940146E8
:1059100006E05DF82140D4F810551560121D491CB1
:10592000C4188C42F5D838BD2CAD000001460148A2
:10593000084470470060004038B504462046FFF731
:10594000F5FF002101602046FFF7F0FF006800909E
:1059500000BF38BD10B504462046FFF7E7FF0068DA
:10596000012800D110BD0020FCE7000001490860BB
:1059700070470000046300400022024941F82020E3
:1059800070470000106500400246505808B10120E1
:1059900070470020FCE708B50022425042580092B0
:1059A00000BF08BDC0F800137047C0F81415704759
:1059B00010B5136800F5A46404EB4114236000BF24
:1059C000938800F5A46404EB4114636000BF9368FE
:1059D00000F5A46404EB4114A36000BFD36800F594
:1059E000A46404EB4114E36000BF10BDC0F80012D2
:1059F0007047012242507047024A1060121D116028
:105A0000704700002C76004001460348085808B152
:105A1000012070470020FCE70070004008B500211D
:105A2000034A815011464158009100BF08BD000053
:105A3000007000400121014A815070470070004011
:105A400001464FF4A07000EB810080B27047014620
:105A50004FF480308840704708B5002242504258C9
:105A6000009200BF08BDC0F808137047C0F80413C7
:105A70007047D0F800228A43C0F800227047012204
:105A80004250704710B502460A23002012E00C4C29
:105A900004EB001464688C420AD2094C04EB001435
:105AA000646804F580548C4202D90023108003E01E
:105AB000441CA0B20228EADB00BF184610BD00005B
:105AC000803400200389CA1C1A4402814389CA1CFD
:105AD0009A1A42817047000038B50446002002231C
