:020000040000FA
:1000000000040020E90800007D050000C908000088
:1000100087050000910500009B050000000000001E
:100020000000000000000000000000000D090000BA
:10003000A505000000000000AF050000B9050000A4
:10004000C3050000CD050000D7050000E105000054
:10005000EB050000F5050000FF05000009060000A3
:10006000130600001D0600002706000031060000F0
:100070003B060000450600004F0600005906000040
:10008000630600006D060000770600008106000090
:100090008B060000950600009F060000A9060000E0
:1000A000B3060000BD060000C7060000D106000030
:1000B000DB060000E5060000EF060000F906000080
:1000C000030700000D0700001707000021070000CC
:1000D0002B070000350700003F070000490700001C
:1000E000530700005D07000067070000710700006C
:1000F0007B070000850700008F07000099070000BC
:10010000A30700001FB500F003F88DE80F001FBD26
:1001100000F0E0BB1FB56FF00100009040100390AD
:10012000029001904FF010208069000B420900F00E
:100130001F045DF822300120A04083434DF8223097
:10014000684600F045F91FBDF0B54FF6FF734FF458
:10015000B4751A466E1E11E0A94201D3344600E080
:100160000C46091B30F8027B641E3B441A44F9D14B
:100170009CB204EB134394B204EB12420029EBD17E
:1001800098B200EB134002EB124140EA0140F0BD8F
:10019000DE4992B00446D1E90001CDE91001FF2209
:1001A0004021684600F03CFB94E80F008DE80F000A
:1001B000684610A902E004C841F8042D8842FAD12B
:1001C00010216846FFF7C0FF1090AA208DF8440068
:1001D000FFF7A0FF00F0F3F84FF01024A069102201
:1001E0006946803000F002F9A069082210A900F0E9
:1001F000FDF800F0D8F84FF080510A6949690068AD
:100200004A43824201D8102070470020704710B541
:10021000D0E900214FF0805002EB8103026944696C
:100220006243934209D84FF01022536903EB8103D4
:100230000169406941438B4201D9092010BD5069D1
:10024000401C01D0002010BD0F2010BD70B501680A
:100250000446AF4D4FF01020072952D2DFE801F0DD
:10026000330419293C1E2500D4E902656468294637
:10027000304600F0CDF82A462146304600F0B6F868
:10028000AA002146304600F09FFA002800D0032043
:1002900070BD00F051FB4FF4805007E0201DFFF7C8
:1002A000AAFF0028F4D100F047FB60682860002016
:1002B00070BD241D94E80700920000F085FA002824
:1002C000F6D00E2070BD8069401C12D0201DFFF7B3
:1002D0009EFF0028F6D109E08069401C09D0201D4E
:1002E000FFF789FF0028EDD1606820B12046FFF7B5
:1002F0004FFF042070BDFFF70DFF00F060F800F025
:1003000052F8072070BD10B50C46182802D0012005
:10031000086010BD2068FFF799FF206010BD4FF006
:100320001024A069401C05D0A569A66980353079E4
:10033000AA2808D06069401C2DD060690068401C64
:1003400029D060692CE010212846FFF7FDFE3168B6
:1003500081421CD1A16901F18002C03105E030B1B8
:1003600008CA51F8040D984201D1012000E0002094
:100370008A42F4D158B1286810B1042803D0FEE7AE
:10038000284600F057F862496868086008E000F005
:1003900016F800F008F84FF480500168491C01D0AD
:1003A00000F0A4FAFEE7BFF34F8F5A4801685A4A9B
:1003B00001F4E06111430160BFF34F8FFEE74FF09E
:1003C00010208169491C02D0806900F0AEB87047E6
:1003D000524A01681160121D416811604F4A8168DC
:1003E00010321160111DC068086070472DE9F0419E
:1003F00017460D460646002406E03046296800F000
:10040000A7F8641C2D1D361DBC42F6D3BDE8F08153
:1004100070B50C4605464FF4806608E0284600F0AB
:1004200084F8B44205D3A4F5806405F58055002C0A
:10043000F4D170BD4168044609B1012500E00025F2
:100440004FF010267069A268920000F0BDF9C8B1A3
:10045000204600F01AF89DB17669A56864684FF4EB
:10046000002084420AD2854208D229463046FFF74E
:10047000CFFF2A4621463046FFF7B8FFFFF79FFF20
:10048000FFF791FFFFF746FEF8E72DE9FF414FF038
:100490001024616980680D0B01EB800000F6FF708D
:1004A000010B0020009001900290024603906846E4
:1004B00001230BE0560902F01F0C50F8267003FAD6
:1004C0000CFC47EA0C0740F82670521CAA42F1D3F4
:1004D0000AE04A0901F01F0650F8225003FA06F616
:1004E000354340F82250491C8029F2D3A169090BF9
:1004F0004A0901F01F0150F822408B409C4340F80C
:100500002240FFF765FFBDE8FF8100005C090000A5
:10051000000000200CED00E00400FA050006004099
:10052000144801680029FCD07047134A0221116069
:1005300010490B68002BFCD00F4B1B1D186008687E
:100540000028FCD00020106008680028FCD070470C
:10055000094B10B501221A60064A1468002CFCD021
:10056000016010680028FCD0002018601068002886
:10057000FCD010BD00E4014004E5014008208F4993
:1005800009680958084710208C4909680958084724
:1005900014208A49096809580847182087490968BA
:1005A0000958084730208549096809580847382004
:1005B00082490968095808473C2080490968095858
:1005C000084740207D4909680958084744207B496D
:1005D00009680958084748207849096809580847B0
:1005E0004C20764909680958084750207349096822
:1005F0000958084754207149096809580847582084
:100600006E490968095808475C206C49096809580F
:100610000847602069490968095808476420674904
:100620000968095808476820644909680958084753
:100630006C20624909680958084770205F490968B9
:100640000958084774205D49096809580847782007
:100650005A490968095808477C20584909680958C7
:10066000084780205549096809580847842053499C
:1006700009680958084788205049096809580847F7
:100680008C204E4909680958084790204B49096851
:10069000095808479420494909680958084798208B
:1006A00046490968095808479C204449096809587F
:1006B0000847A0204149096809580847A4203F4934
:1006C000096809580847A8203C490968095808479B
:1006D000AC203A49096809580847B02037490968E9
:1006E00009580847B4203549096809580847B8200F
:1006F0003249096809580847BC2030490968095837
:100700000847C0202D49096809580847C4202B49CB
:10071000096809580847C82028490968095808473E
:10072000CC202649096809580847D0202349096880
:1007300009580847D4202149096809580847D82092
:100740001E49096809580847DC201C4909680958EE
:100750000847E0201949096809580847E420174963
:10076000096809580847E8201449096809580847E2
:10077000EC201249096809580847F0200F49096818
:1007800009580847F4200D49096809580847F82016
:100790000A49096809580847FC20084909680958A6
:1007A00008475FF480700549096809580847000048
:1007B00003480449024A034B704700000000002030
:1007C000680900006809000040EA010310B59B07B2
:1007D0000FD1042A0DD310C808C9121F9C42F8D0AB
:1007E00020BA19BA884201D9012010BD4FF0FF305C
:1007F00010BD1AB1D30703D0521C07E0002010BD72
:1008000010F8013B11F8014B1B1B07D110F8013BFD
:1008100011F8014B1B1B01D1921EF1D1184610BDDE
:1008200002F0FF0343EA032242EA024200F005B865
:100830007047704770474FF000020429C0F01280E3
:1008400010F0030C00F01B80CCF1040CBCF1020F83
:1008500018BF00F8012BA8BF20F8022BA1EB0C0158
:1008600000F00DB85FEAC17C24BF00F8012B00F84E
:10087000012B48BF00F8012B70474FF0000200B574
:10088000134694469646203922BFA0E80C50A0E8B3
:100890000C50B1F12001BFF4F7AF090728BFA0E861
:1008A0000C5048BF0CC05DF804EB890028BF40F82D
:1008B000042B08BF704748BF20F8022B11F0804F6F
:1008C00018BF00F8012B7047014B1B68DB68184705
:1008D0000000002009480A497047FFF7FBFFFFF7B7
:1008E00011FC00BD20BFFDE7064B1847064A10600B
:1008F000016881F30888406800470000680900002B
:10090000680900001F030000000000201EF0040F13
:100910000CBFEFF30881EFF3098188690238007892
:10092000182803D100E00000074A1047074A126860
:100930002C3212681047000000B5054B1B68054AB1
:100940009B58984700BD00000703000000000020EE
:100950005809000004000000001000000000000022
:0809600000FFFFFF0090D0032F
:10100000E8120020D91802000DBB00004B180200A6
:101010000DBB00000DBB00000DBB00000000000078
:101020000000000000000000000000003119020074
:101030000DBB0000000000000DBB00000DBB000058
:10104000991902009F1902000DBB00000DBB0000A2
:101050000DBB00000DBB00000DBB00000DBB000070
:10106000A51902000DBB00000DBB0000AB1902006A
:101070000DBB0000B1190200B7190200BD19020032
:101080000DBB00000DBB00000DBB00000DBB000040
:101090000DBB00000DBB00000DBB00000DBB000030
:1010A0000DBB0000C31902000DBB00000DBB00000A
:1010B0000DBB00000DBB00000DBB00000DBB000010
:1010C000C91902000DBB00000DBB00000DBB0000E4
:1010D0000DBB00000DBB00000DBB00000DBB0000F0
:1010E0000DBB00000DBB00000DBB00000DBB0000E0
:1010F0000DBB00000DBB00000DBB00000DBB0000D0
:101100000DBB00000DBB000000F002F820F0D1FB89
:101110000AA090E8000C82448344AAF10107DA4552
:1011200001D120F0C6FBAFF2090EBAE80F0013F0B0
:10113000010F18BFFB1A43F001031847D00E02003D
:10114000F00E02000A444FF0000C10F8013B13F0BF
:10115000070408BF10F8014B1D1108BF10F8015B10
:10116000641E05D010F8016B641E01F8016BF9D103
:1011700013F0080F1EBF10F8014BAD1C0C1B09D15A
:101180006D1E58BF01F801CBFAD505E014F8016BCC
:1011900001F8016B6D1EF9D59142D6D3704700005E
:1011A0000023002400250026103A28BF78C1FBD870
:1011B000520728BF30C148BF0B6070471FB500F011
:1011C0003DF88DE80F001FBD1EF0040F0CBFEFF3BC
:1011D0000880EFF30980014A104700004F2E0000FD
:1011E0008269034981614FF001001044704700009B
:1011F000F511000001B41EB400B512F0E3FC01B417
:101200000198864601BC01B01EBD0000F0B4404606
:10121000494652465B460FB402A0013001B506486C
:10122000004700BF01BC86460FBC804689469246F7
:101230009B46F0BC704700000911000020F036BB4F
:1012400070B51A4C054609202070A01C00F05FF80C
:101250005920A08029462046BDE8704007F0EBBF2A
:1012600007F0F4BF70B50C461149097829B1A0F117
:101270006001552908D3012013E0602804D06928B3
:1012800002D043F201000CE020CC0A4E94E80E009C
:1012900006EB8000A0F58050241FD0F8806E284611
:1012A000B047206070BD012070470000080000209A
:1012B0001C000020141A020010B504460021012071
:1012C00000F03CF800210B2000F038F80421192030
:1012D00000F034F804210D2000F030F804210E2035
:1012E00000F02CF804210F2000F028F80421C84356
:1012F00000F024F80621162000F020F80621152021
:1013000000F01CF82046FFF79BFF002010BD4FF6B1
:10131000FE7101807047FFF7A3BF10487047104A65
:1013200010B514680E4B0F4A08331A60FFF79AFF86
:101330000B48001D046010BD704770474907090E37
:10134000002806DA00F00F0000F1E02080F8141DFC
:10135000704700F1E02080F80014704703F9004264
:101360001005024001000001FE48002101604160BB
:10137000018170472DE9F743044692B091464068D9
:1013800012F0E6FE40B1606812F0EBFE20B9607822
:1013900000F00300022801D0012000E00020F14EFF
:1013A0004D463072484612F08FFE18B1102015B02D
:1013B000BDE8F0832946012001F01FFF0028F6D187
:1013C00001258DF842504FF4C050ADF84000002286
:1013D00010A9284606F004FC0028E8D18DF84250F8
:1013E0004FF428504FF00008ADF8400047461C214C
:1013F0006846CDF81C8020F0FEF99DF81C0008AA74
:1014000020F00F00401C20F0F00010308DF81C0080
:1014100020788DF81D0061789DF81E0061F3420070
:1014200040F001008DF81E009DF800000AA940F070
:1014300002008DF800002089ADF83000ADF8327060
:10144000608907AFADF834000B97606810AC0E9060
:101450000A94684606F0B9F90028A8D1BDF8200022
:1014600030808DF8425042F60120ADF840009DF8E2
:101470001E0008AA20F00600801C20F001008DF854
:101480001E000220ADF83000ADF8340013A80E9015
:101490000AA9684606F099F9002888D1BDF820000D
:1014A0007080311D484600F033F9002887D18DF84F
:1014B000425042F6A620ADF840001C216846CDF807
:1014C0001C8020F098F99DF81C00ADF8345020F0F5
:1014D0000F00401C20F0F00010308DF81C009DF82B
:1014E0001D0008AA20F0FF008DF81D009DF81E00C9
:1014F0000AA920F0060040F00100801C8DF81E00B3
:101500009DF800008DF8445040F002008DF8000076
:10151000CDE90A4711A80E90ADF83050684606F0A4
:1015200054F9002899D1BDF82000F08000203EE752
:101530003EB504460820ADF80000204612F0C4FD78
:1015400008B110203EBD2146012001F056FE0028C2
:10155000F8D12088ADF804006088ADF80600A088B6
:10156000ADF80800E088ADF80A007E4801AB6A4695
:101570008088002106F02EFDBDF800100829E1D07A
:1015800003203EBD1FB50446002002900820ADF8A0
:101590000800CDF80CD0204612F096FD10B11020B6
:1015A00004B010BD6F4802AA81884FF6FF7006F0A4
:1015B00058FF0028F4D1BDF80810082901D00320F5
:1015C000EEE7BDF800102180BDF802106180BDF883
:1015D0000410A180BDF80610E180E1E701B582B0FA
:1015E0000220ADF800005F4802AB6A464088002147
:1015F00006F0F0FCBDF80010022900D003200EBD5B
:101600001CB5002100910221ADF80010019012F0EC
:1016100081FD08B110201CBD52486A4641884FF632
:10162000FF7006F01EFFBDF800100229F3D0032062
:101630001CBDFEB54B4C06461546207A0F46C0072A
:1016400005D0084612F040FD18B11020FEBD0F2055
:10165000FEBDF82D01D90C20FEBD304612F034FD40
:1016600018BB208801A905F0F4FD0028F4D13078DA
:101670008DF80500208801A906F08BFC0028EBD12D
:1016800000909DF800009DF8051040F002008DF8D4
:101690000000090703D040F008008DF80000208802
:1016A000694606F013FC0028D6D1ADF80850208812
:1016B0003B4602AA002106F08DFCBDF80810A942A5
:1016C000CAD00320FEBD7CB50546002000900190E5
:1016D0000888ADF800000C462846019512F038FD48
:1016E00018B9204612F016FD08B110207CBD15B1C6
:1016F000BDF8000050B11B486A4601884FF6FF70E4
:1017000006F0AFFEBDF8001021807CBD0C207CBD32
:1017100030B593B0044600200D460090142101A876
:1017200020F069F81C2108A820F065F89DF8000059
:10173000CDF808D020F00F00401C20F0F000103051
:101740008DF800009DF8010020F0FF008DF80100E9
:101750009DF8200040F002008DF8200001208DF857
:10176000460001E0E201002042F60420ADF844000A
:1017700011A801902088ADF83C006088ADF83E00CB
:10178000A088ADF84000E088ADF842009DF8020066
:1017900006AA20F00600801C20F001008DF802004F
:1017A0000820ADF80C00ADF810000FA8059001A9B5
:1017B00008A806F00AF8002803D1BDF81800288010
:1017C000002013B030BD0000F0B5007B059F1E4621
:1017D00014460D46012800D0FFDF0C2030803A204F
:1017E0003880002C08D0287A052806D0287B0128CC
:1017F00000D0FFDF17206081F0BDA889FBE72DE94D
:10180000F04786B0144691F80C900E9A0D46B9F147
:10181000010F0BD01021007B2E8A8846052807D0A7
:10182000062833D0FFDF06B0BDE8F0870221F2E7DB
:10183000E8890C2100EB400001EB400018803320C8
:101840001080002CEFD0E889608100271AE0009614
:10185000688808F1020301AA696900F06AFF06EBD3
:101860000800801C07EB470186B204EB4102BDF87B
:10187000040090810DF1060140460E3210F05CFC30
:101880007F1CBFB26089B842E1D8CCE73420108019
:10189000E889B9F1010F11D0122148430E301880A8
:1018A000002CC0D0E88960814846B9F1010F00D012
:1018B0000220207300270DF1040A1FE00621ECE747
:1018C0000096688808F1020301AA696900F031FFF7
:1018D00006EB0800801C86B2B9F1010F12D007EBAD
:1018E000C70004EB4000BDF80410C18110220AF1CA
:1018F000020110301FF0DEFE7F1CBFB26089B842CB
:10190000DED890E707EB470104EB4102BDF8040085
:10191000D0810AF102014046103210F00DFCEBE7D5
:101920002DE9F0470E4688B090F80CC096F80C8070
:10193000378AF5890C20109902F10C044FF0000A47
:10194000BCF1030F08D0BCF1040F3ED0BCF1070F6F
:101950007DD0FFDF08B067E705EB850C00EB4C009E
:10196000188031200880002AF4D0A8F1060000F089
:10197000FF09558125E0182101A81FF03CFF0097C1
:101980007088434601AA716900F0D3FEBDF80400D7
:101990002080BDF80600E080BDF808002081A21C70
:1019A0000DF10A01484610F0C7FBB9F1000F00D055
:1019B00018B184F804A0A4F802A007EB080087B2CD
:1019C0000A346D1EADB2D6D2C4E705EB850C00EB30
:1019D0004C00188032200880002ABBD0A8F10500F6
:1019E00000F0FF09558137E000977088434601AA4F
:1019F000716900F09EFE9DF80600BDF80410E180BC
:101A00002179420860F3000162F34101820862F328
:101A10008201C20862F3C301020962F304114209A0
:101A200062F34511820962F386112171C009607168
:101A3000BDF80700208122460DF10901484610F04B
:101A40007BFB18B184F802A0A4F800A000E007E036
:101A500007EB080087B20A346D1EADB2C4D279E735
:101A6000A8F1020084B205FB08F000F10E0CA3F807
:101A700000C035230B80002AA6D0558194810097A1
:101A800083B270880E32716900F053FE62E72DE96F
:101A9000F84F1E460A9D0C4681462AB1607A00F531
:101AA0008070D080E089108199F80C000C274FF0ED
:101AB00000084FF00E0A0D2873D2DFE800F09E07F1
:101AC0000E1C28303846556A737373002146484609
:101AD0000095FFF779FEBDE8F88F207B9146082836
:101AE00002D0032800D0FFDF378030200AE000BF9B
:101AF000A9F80A80EFE7207B9146042800D0FFDF99
:101B0000378031202880B9F1000FF1D1E3E7207B45
:101B10009146042800D0FFDF37803220F2E7207B97
:101B20009146022800D0FFDF37803320EAE7207B90
:101B30001746022800D0FFDF3420A6F800A0288036
:101B4000002FC8D0A7F80A80C5E7207B17460428D5
:101B500000D0FFDF3520A6F800A02880002FBAD0E3
:101B60004046A7F80A8012E0207B1746052802D0DD
:101B7000062800D0FFDF1020308036202880002F7C
:101B8000A9D0E0897881A7F80E80B9F80E00B88155
:101B9000A1E7207B9146072800D0FFDF3780372060
:101BA000B0E72AE04FF0120018804FF0380017001D
:101BB000288090D0E0897881A7F80E80A7F810805F
:101BC00099F80C000A2805D00B2809D00C280DD054
:101BD000FFDF80E7207B0C2800D0FFDF01200AE038
:101BE000207B0D2800D0FFDF042004E0207B0E289E
:101BF00000D0FFDF052038736DE7FFDF6BE770B5BE
:101C00000C46054601F06CFA20B10078222804D277
:101C1000082070BD43F2020070BD052128460EF079
:101C20002DFE206008B1002070BD032070BD2DE99D
:101C3000FF4784B000268246029607989046894660
:101C4000123009F0C6FF401D20F00307079828B99D
:101C500007A95046FFF7D3FF002850D1B9F1000F74
:101C600005D00798017B11BB052504681AE098F898
:101C70000000092803D00F2811D0FFDF42E00799A8
:101C800003254868497B42887943914236D98AB214
:101C9000BBB2011D0EF04BFC0446068002E0079C1F
:101CA000042508340CB1208810B1032D26D029E07A
:101CB00007980121123009F0C4FFADF80C0002466C
:101CC00002AB2946504608F054F9060001D1A01C89
:101CD0000290079832461230C8F80400A8F802A013
:101CE00003A94046029B09F0B9FFB0B1072812D200
:101CF000DFE800F0060811110F0A0C00132029E696
:101D0000002027E6112025E6082023E643F2030001
:101D100020E607201EE603201CE6BDF80C00234643
:101D2000CDE900602A465046079900F028FD56B9D3
:101D3000032D08D10798BBB2417B406879438AB232
:101D4000011D0EF008FCB9F1000FD9D0079981F8F8
:101D50000C90D5E72DE9FE4F91461A881C468A461D
:101D60008046FAB102AB494608F003F9050019D0E4
:101D70004046A61C27880EF09DFE324607262946BF
:101D80003B4600960EF05CFA20882346CDE90050D1
:101D90004A465146404600F0F2FC002020800120D7
:101DA000BDE8FE8F0020FBE710B586B01C46AAB147
:101DB00004238DF800301388ADF808305288ADF850
:101DC0000A208A788DF80E200988ADF80C100023BF
:101DD0006A462146FFF72BFF06B010BD1020FBE737
:101DE00070B50D4605210EF049FD040000D1FFDF5E
:101DF000294604F11200BDE8704009F00BBF2DE93F
:101E0000F8430D468046002607F0C9FA04462878B4
:101E100012287BD2DFE800F07A54543C3556323237
:101E2000133232320932323232322879001FC0B2D4
:101E3000022801D0102810D114BBFFDF35E004B90F
:101E4000FFDF052140460EF019FD007B032806D078
:101E500004280BD0072828D0FFDF072657E0287971
:101E6000801FC0B2022820D050B1F6E72879401F69
:101E7000C0B2022819D0102817D0EEE704B9FFDF4E
:101E800013E004B9FFDF287901280ED1172139E0CA
:101E9000052140460EF0F2FC070000D1FFDF07F1FC
:101EA0001201404609F08DFE2CB12A4621464046DB
:101EB00000F04FFC2BE01321404602F0A9FC26E085
:101EC000FFDF24E004B9FFDF052140460EF0D6FC19
:101ED000060000D1FFDF694606F1120009F07BFE23
:101EE000060000D0FFDFA988172901D2172200E0E1
:101EF0000A46BDF80000824202D9014602E005E030
:101F00001729C3D3404600F04AFCCEE7FFDF304636
:101F1000BDE8F883401D20F00300021D01FB0020F6
:101F2000704713B5009848B1002468460EF0A9FA2E
:101F3000002C02D1FE4A009911601CBD0124002032
:101F4000F4E72DE9F0470E461546242130461FF0F0
:101F500052FC05B9FFDFA87870732888DFF8D0A39A
:101F6000401D20F0030195F802900C46DAF80000BD
:101F70000EF0A5FA070000D1FFDF4FF00008376030
:101F8000A7F8008004FB09F4211DDAF800000EF028
:101F900096FA040000D1FFDF7460C4F8008029883D
:101FA00006F11200BDE8F04709F0FDBD2DE9F0474C
:101FB000804601F112000D46814609F00AFE401DDF
:101FC000DB4E20F003046F7B2246296830680EF058
:101FD000A1FA7C43221D696830680EF09BFA052047
:101FE0000EF0F6FB044605200EF0FAFB201A01283D
:101FF00002D130680EF058FA49464046BDE8F04735
:1020000009F0E6BD70B5054605210EF037FC040069
:1020100000D1FFDF04F112012846BDE8704009F04D
:10202000D0BD2DE9F04F91B04FF0000BADF834B0BA
:10203000ADF804B047880C4605469246052138465F
:102040000EF01CFC060000D1FFDF24B1A780A4F82D
:1020500006B0A4F808B0297809220B20B2EB111FB2
:10206000297A7CD104F110023827C91E4FF00C09DF
:102070004FF0010803920F2972D2DFE801F0F3F26A
:10208000F18008D3898EA03DDCF4EFB7B700307B38
:10209000022800D0FFDFA88909EBC001ADF80410C9
:1020A0003021ADF83410002C25D06081B5F80E90A9
:1020B00000271DE004EBC708317C88F80E10F18979
:1020C000A8F80C10CDF800906888042304AA2969A8
:1020D00000F02FFBBDF81010A8F8101009F1040053
:1020E000BDF812107F1C1FFA80F9A8F81210BFB2B9
:1020F0006089B842DED80BE1307B022800D0FFDFD8
:10210000E98909EBC100ADF804003020ADF83400D6
:10211000287B0A90001FC0B20F90002CEBD0618189
:10212000B5F81090002726E0CDF80090688869691E
:1021300003AA0A9B00F0FDFA0A9904EBC70809EB11
:1021400001001FFA80F908F10C0204A90F980FF0A2
:10215000F3FF18B188F80EB0A8F80CB001E0D4E095
:10216000D1E0BDF80C10A8F81010BDF80E107F1CBF
:10217000A8F81210BFB26089B842D5D8C8E00DA83F
:10218000009001AB224629463046FFF738FBBFE0FE
:10219000307B082805D0FFDF03E0307B082800D023
:1021A000FFDFE8891030ADF804003620ADF83400C8
:1021B000002C3FD0A9896181F189A18127E0307B82
:1021C000092800D0FFDFA88900F10C01ADF8041048
:1021D0003721ADF83410002C2CD06081E8890090B4
:1021E000AB89688804F10C02296956E0E889392135
:1021F000103080B2ADF80400ADF83410002C74D06B
:10220000A9896181287A10280AD002212173E989DD
:10221000E181288A0090EB8968886969039A3CE02B
:102220000121F3E70DA8009001AB22462946304674
:10223000FFF776FB6CE0307B0A2800D0FFDF12202E
:10224000ADF80400ADF834704CB3A9896181A4F8ED
:1022500010B0A4F80EB084F80C8059E020E002E041
:1022600031E039E042E0307B0B2800D0FFDF288AE4
:10227000ADF834701230ADF8040084B1042121733C
:10228000A9896181E989E181298A2182688A00908E
:102290002B8A688804F11202696900F04AFA37E073
:1022A000307B0C2800D0FFDF1220ADF80400ADF821
:1022B00034703CB305212173A4F80AB0A4F80EB021
:1022C000A4F810B024E00DA8009001AB22462946E6
:1022D0003046FFF779FA1BE00DA8009001AB2246CB
:1022E00029463046FFF7D3FB12E036E03B21ADF83C
:1022F0000400ADF8341084B3A4F80680A4F808B044
:1023000084F80AB004E0FFDF02E001291CD0FFDFFF
:10231000BDF80400AAF8000094B1BDF83400208094
:10232000BDF804006080BDF83400392808D001E011
:10233000100000203B2803D03C2801D086F80CB0C8
:1023400011B00020BDE8F08F3C21ADF80400ADF8DD
:10235000341014B1697AA172DAE7FFE7AAF8000035
:10236000EEE72DE9F84356880F46804615460521CD
:1023700030460EF083FA040000D1FFDF12340094DF
:102380003B46414630466A6809F022FEC0E570B51A
:102390000D4605210EF072FA040000D1FFDF294638
:1023A00004F11200BDE8704009F020BC70B50D4684
:1023B00005210EF063FA040000D1FFDF294604F185
:1023C0001200BDE8704009F044BC70B50546052117
:1023D0000EF054FA040000D1FFDF04F10803214697
:1023E0002846BDE870400422B4E470B505460521D6
:1023F0000EF044FA040000D1FFDF2146284623688E
:10240000BDE870400522A5E470B5064605210EF032
:1024100035FA040000D1FFDF04F1120009F0D9FB06
:10242000401D20F0030511E0011D00880322431820
:1024300021463046FFF78EFC00280BD0607BABB204
:10244000684382B26068011D0EF0BBF86068418885
:102450000029E9D170BD70B50E46054606F09FFF14
:10246000040000D1FFDF01202072667265802078B1
:1024700020F00F00C01C20F0F00030302070BDE8CC
:10248000704006F08FBF2DE9F0438BB00D46144627
:10249000814606A9FFF7B3FB002814D14FF6FF765B
:1024A00001274FF420588CB103208DF80000102034
:1024B000ADF8100007A8059007AA204604A90FF060
:1024C0005AFE78B107200BB0BDE8F0830820ADF8C4
:1024D00008508DF80E708DF80000ADF80A60ADF868
:1024E0000C800CE00698A17801742188C1818DF8D8
:1024F0000E70ADF80850ADF80C80ADF80A606A4671
:1025000002214846069BFFF792FBDCE708B5012253
:102510008DF8022042F60202ADF800200A4603239D
:102520006946FFF741FC08BD08B501228DF802207D
:1025300042F60302ADF800200A4604236946FFF77D
:1025400033FC08BD00B587B079B102228DF80020B8
:102550000A88ADF808204988ADF80A1000236A46B9
:102560000521FFF764FB07B000BD1020FBE709B1B0
:10257000072319E40720704770B588B00D4614464C
:10258000064606A9FFF73BFB00280ED17CB10620CA
:10259000ADF808508DF80000ADF80A40069B6A4679
:1025A0000821DC813046FFF742FB08B070BD0520F2
:1025B0008DF80000ADF80850F0E700B587B059B1CC
:1025C00007238DF80030ADF80820039100236A46F8
:1025D0000921FFF72CFBC6E71020C4E770B588B0CF
:1025E0000C460646002506A9FFF709FB0028DCD1AA
:1025F00006980121123009F024FB9CB121780629AC
:1026000021D2DFE801F0200505160318801E80B2F4
:10261000C01EE28880B20AB1A3681BB1824203D90E
:102620000C20C2E71020C0E7042904D0A08850B9CC
:1026300001E00620B9E7012913D0022905D00429B9
:102640001CD005292AD00720AFE709208DF800000B
:102650006088ADF80800E088ADF80A00A068039033
:1026600023E00C208DF800006088ADF80800E088B9
:10267000ADF80A00A0680A25039016E00D208DF839
:1026800000006088ADF80800A088ADF80A00E08876
:10269000ADF80C00A0680B25049006E00E208DF824
:1026A000000060788DF808000C256A4629463046FF
:1026B000069BFFF7BCFA78E700B587B00F228DF8CC
:1026C0000020ADF8081000236A461946FFF7AFFA5C
:1026D00049E700B587B071B102228DF800200A8861
:1026E000ADF808204988ADF80A1000236A46062193
:1026F000FFF79DFA37E7102035E770B586B006463C
:1027000001200D46ADF808108DF8000001460023A9
:102710006A463046FFF78BFA040008D12946304656
:1027200005F072FC0021304605F08CFC204606B016
:1027300070BDF8B51C4615460E46069F0EF0A8F96A
:102740002346FF1DBCB231462A4600940DF03FFDE2
:10275000F8BD10B548800878144620F00F00C01C62
:1027600020F0F00090300B4608701822214603F14B
:1027700008001EF0E4FFBDE8104006F013BE30B4C0
:102780001146DDE902423CB1032903D0002330BCED
:1027900008F03CBA0123FAE71A8030BC704770B5E4
:1027A0000C460546FFF71CFB2146284605F03BFC7E
:1027B0002846BDE87040012105F044BC4FF0E022FE
:1027C0004FF400410020C2F88011204908702049D0
:1027D00090020860704730B51C4D04462878A0422E
:1027E00018BF002C02D0002818BFFFDF2878A042B5
:1027F00008BF30BD2C701749154A0020ECB1164DAA
:10280000DFF858C0131F012C0DD0022C1CBFFFDFB6
:1028100030BD086003200860CCF800504FF4000081
:102820001060186030BD086002200860CCF80050CD
:102830004FF040701060186030BD086008604FF0C5
:102840006070106030BD00B5FFDF00BD18000020D3
:1028500008F5014000F500402403002014F5004075
:1028600070B50B2000F0B5F9082000F0B2F9002196
:102870000B2000F0C4F90021082000F0C0F9EC4C56
:1028800001256560A5600020C4F84001C4F844013A
:10289000C4F848010B2000F0A7F9082000F0A4F9C3
:1028A0000B2000F08BF9256070BD10B50B2000F0F7
:1028B00090F9082000F08DF9DD4801214160816028
:1028C000DC490A68002AFCD10021C0F84011C0F898
:1028D0004411C0F848110B2000F086F9BDE8104003
:1028E000082000F081B910B50B2000F07DF9BDE89B
:1028F0001040082000F078B900B530B1012806D0AA
:10290000022806D0FFDF002000BDCB4800BDCB4829
:1029100000BDCA48001D00BD70B5C9494FF0004058
:102920000860C84DC00BC5F80803C7480024046000
:10293000C5F840410820C43500F04BF9C5F83C41CA
:10294000C248047070BD08B5B94A002128B10128F9
:1029500011D002281CD0FFDF08BD4FF48030C2F830
:102960000803C2F84803B3483C300160C2F8401184
:10297000BDE80840D0E74FF40030C2F80803C2F8C1
:102980004803AC4840300160C2F84411AB480CE049
:102990004FF48020C2F80803C2F84803A548443029
:1029A0000160C2F84811A548001D0068009008BDEC
:1029B00070B516460D460446022800D9FFDF0022F6
:1029C0009B48012304F110018B4000EB8401C1F806
:1029D000405526B1C1F84021C0F8043303E0C0F8E7
:1029E0000833C1F84021C0F8443370BD2DE9F041EF
:1029F0001C46154630B1012834D0022839D0FFDFFB
:102A0000BDE8F081891E002221F07F411046FFF7CA
:102A1000CFFF012C24D000208C4E8A4F01247070EF
:102A20003C61894900203C3908600220091D08608A
:102A3000854904203039086083483D350560C7F872
:102A40000042082000F0D0F82004C7F80403082052
:102A500000F0B4F87A49E007091F08603470CFE746
:102A60000120D9E7012B02D00022012005E001223C
:102A7000FBE7012B04D000220220BDE8F04197E7DC
:102A80000122F9E76B480068704770B500F0C7F89D
:102A9000674C0546D4F840010026012809D1D4F836
:102AA0000803C00305D54FF48030C4F80803C4F808
:102AB0004061D4F8440101280CD1D4F80803800304
:102AC00008D54FF40030C4F80803C4F8446101206D
:102AD00010F016FBD4F8480101280CD1D4F80803F3
:102AE000400308D54FF48020C4F80803C4F84861B7
:102AF000022010F005FB5648056070BD70B500F06F
:102B00008EF8524D0446287858B1FFF705FF6878D3
:102B100020B1002085F8010010F0F2FA4C48046062
:102B200070BD0320F8E74FF0E0214FF40010C1F82A
:102B300000027047152000F057B842490120086193
:102B4000082000F051B83F494FF47C10C1F8080349
:102B50000020024601EB8003C3F84025C3F8402162
:102B6000401CC0B20628F5D37047410A43F609520B
:102B70005143C0F3080010FB02F000F5807001EB38
:102B80005020704710B5430B48F2376463431B0C69
:102B90005C020C602F4C03FB04002F4B4CF2F7241B
:102BA00043435B0D13FB04F404EB402000F58070FD
:102BB0004012107008681844086010BD00F01F0231
:102BC000012191404009800000F1E020C0F800118F
:102BD000704700F01F02012191404009800000F180
:102BE000E020C0F88011704700F01F0201219140E1
:102BF0004009800000F1E020C0F8801270474907CA
:102C0000090E002806DA00F00F0000F1E02080F83D
:102C1000141D704700F1E02080F8001470470C4844
:102C2000001F00680A4A0D49121D1160704700001C
:102C300000B0004004B500404081004044B1004075
:102C400008F501400080004040850040340000202D
:102C500014050240F7C2FFFF6F0C010001000001E4
:102C60000A4810B50468094909480831086010F09D
:102C7000DBFA0648001D046010BD0649002008600C
:102C80004FF0E0210220C1F8800270471005024099
:102C900001000001FC1F004010B50D2000F06FF88E
:102CA000C4B26FF0040000F06AF8C0B2844200D0F1
:102CB000FFDF3A490120086010BD70B50D2000F01B
:102CC00048F8374C0020C4F800010125C4F804532B
:102CD0000D2000F049F825604FF0E0216014C1F8A4
:102CE000000170BD10B50D2000F033F82C48012113
:102CF00041600021C0F80011BDE810400D2000F037
:102D000033B8284810B504682649274808310860B8
:102D10002349D1F80001012804D0FFDF2148001D1C
:102D2000046010BD1D48001D00680022C0B2C1F83B
:102D3000002110F0B8FEF1E710B51948D0F80011E5
:102D40000029FBD0FFF7DDFFBDE810400D2000F0AB
:102D50000BB800F01F02012191404009800000F1F2
:102D6000E020C0F88011704700F01F02012191405F
:102D70004009800000F1E020C0F880127047002870
:102D800006DA00F00F0000F1E02090F8140D03E0E7
:102D900000F1E02090F800044009704704D500409D
:102DA00000D00040100502400100000110B52020B5
:102DB00000F075F8202000F07DF84449202081F8CB
:102DC0000004434900060860091D42480860FEF7F8
:102DD000A4FA3F49C83108603F48D0F8041341F0D5
:102DE0000101C0F80413D0F8041341F08071C0F859
:102DF0000413364901201C39C1F8000110BD10B57B
:102E0000202000F04CF8324800210160001D0160D4
:102E10002F4A481EE83A10602F4AC2F808032C4B8C
:102E2000C8331960C2F80001C2F860012B4908607C
:102E3000BDE81040202000F03DB825492848EC3975
:102E40000860704722492648E8390860704770B525
:102E50001F4A8069E83A224911601F49D1F8006190
:102E60000023204D1D4A5C1E1EB1A84206D300213E
:102E70000FE0D1F8606186B1A84209D2C1F80031F3
:102E8000C1F860311460BDE87040202000F012B835
:102E90001168BDE870401EF0D7BCFFDF70BD00F0C8
:102EA0001F02012191404009800000F1E020C0F89C
:102EB0008011704700F01F020121914040098000FD
:102EC00000F1E020C0F880127047000020E000E030
:102ED000000602406413002000000240000402408B
:102EE00001000001003002004FF0E0214FF00070BF
:102EF000C1F88001C1F88002384B802283F8002499
:102F0000C1F80001704700B502460420344903E0CF
:102F100001EBC0031B792BB1401EC0B2F8D2FFDF1A
:102F2000FF2000BD41F8302001EBC00100224A71B2
:102F30008A7101220A7100BD294A002102EBC000FA
:102F40000171704710B50446042800D3FFDF244800
:102F500000EBC4042079012800D0FFDF6079A1795B
:102F6000401CC0B2814200D060714FF0E0214FF0B0
:102F70000070C1F8000210BD2DE9F0411948056844
:102F800018491948083108601448042690F80004CC
:102F9000134F4009154C042818D0FFDF16E02178A4
:102FA00007EBC1000279012A08D1427983799A425C
:102FB00004D04279827157F8310080472078401C54
:102FC000C0B22070042801D300202070761EF6B213
:102FD000E5D20448001D0560BDE8F08119E000E07D
:102FE0009406002010050240010000014C00002062
:102FF0007047704770477047704770477047704719
:1030000018FFFFFFDBE5B15100300200FEFFFFFFBC
:1030100084000000404B4C0030B5FF4D04461028A2
:103020000AD0112C06D02846122CC17806D0132CB9
:1030300008D0FFDFEC7030BDFFDFFBE71129F9D0CE
:10304000FFDFF7E71129F5D0FFDFF3E770B50FF0E9
:10305000FDF9044610F0AEFB201AC4B206200DF0B4
:10306000B7FB054606200DF0BBFB2E1A07200DF01E
:10307000AFFB054607200DF0B3FBE749281A3218CD
:10308000C87812280DD000231A4413280BD0002032
:1030900002440878022808D000201044201AC0B248
:1030A00070BD0123F0E70120F2E70120F5E7DA48DF
:1030B00000B58079D849420897B051F8070F898840
:1030C0000CD017228DF80020CDF80200ADF80610C4
:1030D0000BA968460AF0ADFE17B000BD4422F1E727
:1030E00002210DF0CBBB2DE9F04196B01D46904674
:1030F0000E460746FFF7F4FF04000BD02078222885
:1031000004D3A07FC0F34010A84206D1082016B017
:10311000BDE8F08143F20200F9E749208DF8000094
:10312000ADF802703DB101208DF804008DF8056006
:103130008DF8068002E000208DF804000BA9684697
:103140000AF077FEA07F65F34510A0770020DEE748
:1031500030B50446A1F120000D460A284AD2DFE826
:1031600000F005070C1C2328353A3F44FFDF42E0FE
:10317000207820283FD1FFDF3DE0A74801780329D0
:1031800039D0C078132836D02078242833D0252889
:1031900031D023282FD0FFDF2DE0207822282AD01D
:1031A000232828D8FFDF26E02078222823D0FFDF3D
:1031B00021E0207822281ED024281CD026281AD0CE
:1031C000272818D0292816D0FFDF14E020782528DA
:1031D00011D0FFDF0FE0207825280CD0FFDF0AE0B8
:1031E0002078252807D0FFDF05E02078282802D0A6
:1031F000FFDF00E0FFDF257030BD30B50B8840F603
:103200007B444FF6FF72022801D0934204D09D1FE9
:10321000A54224D2022802D04D88954203D04D8881
:10322000AD1FA5421BD24C88A34218D88B88B3F59A
:10323000FA7F14D2022802D0C888904205D0C888EC
:1032400040F677450A38A84209D2C888904208D08B
:10325000944206D05B1C6343B3EB800F01DB072075
:1032600030BD002030BD70B514460D46064610F046
:103270002BFF60B90DB1A54201D90C2070BD00240F
:1032800009E000BF56F8240010F01EFF08B110201E
:1032900070BD641CE4B2AC42F4D3002070BDF0B544
:1032A0000024059D10B1A94203D850E009B90020BF
:1032B000F0BD0920F0BD055DD5B1071997F801C033
:1032C000BCF1150F2DD03BDCBCF1150F38D2DFE877
:1032D0000CF037122020262628282F2F3737373793
:1032E0003737373737372000025D22BB641CE4B222
:1032F0008C42F9D3DBE7022DDBD1BD781D70072DA1
:1033000001D26D0701D40A20F0BD157845F0010502
:1033100015E0EF43FF0707E0012D07D010E006207E
:10332000F0BD2F07A7F18057002FF5D03046F0BD34
:103330001578AF0701D50B20F0BD45F002051570DB
:10334000055D641C2C44E4B28C4202D9B1E74FF411
:1033500048568C42AFD3AAE710B50278540809D07A
:10336000012243F20223012C07D0022C0DD0032CA2
:1033700013D10FE00020087005E080790324B4EB3E
:10338000901F0AD10A70002010BD8079B2EB901F07
:1033900003D1F7E780798009F4D0184610BD1E4AA2
:1033A000117C39B1517C022908D0032908D043F29D
:1033B000022070470146901D01F002BD032100E08C
:1033C000012101700020704738B50C46054669465A
:1033D00001F0F6FC00280DD19DF80010207861F373
:1033E0004700207055F8010FC4F80100A888A4F820
:1033F0000500002038BD38B51378E8B102281BD08D
:1034000006A46D46246800944C7905EB9414247846
:1034100064F34703137003E0CC0100200302FF01B3
:1034200003280ED003F0FE0010700868C2F80100F7
:103430008888A2F8050038BD23F0FE031370022827
:10344000E9D1D8B240F00100EEE730B50C4609787A
:1034500097B0222902D2082017B030BD28218DF85C
:103460000010ADF80200132A03D03B2A01D0072038
:10347000F2E78DF804200BA968460AF0DAFC050093
:1034800003D121212046FFF763FE2846E4E700B57B
:1034900097B023218DF80010ADF802001088ADF828
:1034A00004005088ADF80600D088ADF80A00908876
:1034B000ADF808000020ADF80C00ADF80E000BA927
:1034C00068460AF0B6FC07E600B597B02C22FA4928
:1034D00068461EF034F90020CDF80300ADF807006F
:1034E000F648007C022801D0012000E000208DF881
:1034F00009000BA968460AF09CFC002800D0FFDFF9
:10350000EAE52DE9FF470220EC4E8DF80400002784
:10351000B08AADF80600B84643F202094DE001A8B2
:103520000DF015F9050006D0B08AA8B3A6F81480EE
:10353000ADF806803FE0039CA07F01072DD504F184
:1035400024000090A28EBDF80800214604F1360345
:1035500001F013FE050005D04D452BD0112D3DD0B7
:10356000FFDF3BE0A07F20F00800A077E07F81082C
:1035700061F30000C10861F34100E07794F8210095
:1035800000F01F0084F820002078282827D1292166
:103590002046FFF7DDFD22E015E040070BD5BDF822
:1035A0000800214604F10E02FFF771FF05000DD05F
:1035B0004D4510D100257F1CFFB202200DF008F907
:1035C000401CB842ABD8052D12D008E0A07F20F0F7
:1035D0000400A07703E0112D00D0FFDF0025BDF827
:1035E0000600B082052D05D0284604B0BDE8F0875E
:1035F000A6F814800020F8E770B50646FFF770FDC6
:10360000054605F0CCFE040000D1FFDF668020787F
:1036100020F00F00801C20F0F000203020700620E9
:10362000207295F83E006072BDE8704005F0BABEA9
:103630002DE9F04786B0040000D1FFDF20789F4ECF
:1036400020F00F00801C20F0F000703020706068C7
:103650000178091F172931D2DFE801F0FD3030531E
:10366000FC300CFCFC40FD3030FD76FDFD3030FDC3
:10367000FDFBFA0086883046FFF732FD05463046EE
:1036800007F0B1F9E0B16068807985F83E0021214A
:103690002846FFF75DFD3046FEF7B4FC304603F0E8
:1036A000D7FF3146022010F0C3FCA87F20F01000A5
:1036B000A877FFF726FF002800D0FFDF06B095E7C8
:1036C000207820F0F00020302070062020726680E4
:1036D00060688079607205F065FED8E785882846C5
:1036E000FFF7FEFC00B9FFDF60688078012800D09A
:1036F000FFDF6068817906B02846BDE8F04707F033
:103700001BBD86883046FFF7EBFC050000D1FFDFCC
:1037100005F048FE60683146C088288160680089ED
:10372000688160684089A881022010F081FC002037
:10373000A875A87F00F003000228BFD1FFF7E1FEC3
:103740000028BBD0FFDFB9E780783C2803D00025F4
:1037500002280AD000E00125002720B13C2802D031
:10376000022800D0FFDF17B1B8E00127F5E705F028
:1037700019FE1DB1B07801F0E2FAA1E06568B5F874
:1037800004A0A879AD1C012806D03079814605F047
:103790009FFB070003D101E0B078F7E7FFDF0022CD
:1037A000022150460DF061F8040000D1FFDF222114
:1037B0002046FFF7CDFC2879012800D00220A17F08
:1037C000804668F30101A177288B2081688B608196
:1037D000A88BA08184F822908DF80880B8680090AA
:1037E000F86801906A46032150460DF03EF800B992
:1037F000FFDFB888ADF81000B8788DF8120004AA81
:10380000052150460DF031F800B9FFDFB888ADF85A
:103810000C00F8788DF80E0003AA042150460DF034
:1038200024F800B9FFDF062105F1120001F0F3FAD8
:1038300028B36879800700D5FFDF6979E07D61F3FF
:103840004700E075D5F80600A0616889A08303E011
:103850005EE057E050E062E0062105F10C0001F067
:10386000DAFAB0B1B0794108607861F3470060706E
:10387000D6F80700C4F80200B6F80B0012E0E07DAD
:1038800020F0FE00801CE075D5F81200A061E88AE7
:10389000DCE7607820F0FE00801C6070E868C4F807
:1038A0000200288AE080B8F1010F09D0B8F1020FB8
:1038B00014D0FFDF02E70000941B0200CC010020BF
:1038C0003078032800D0FFDF0021084610F0B0FB5D
:1038D00006B00120BDE8F04701F000BAF0781328E7
:1038E00000D0FFDF0021062010F0A2FB06B011205F
:1038F000BDE8F047FFF790BB06B02046BDE8F047B3
:1039000001F0ECBE05F04EFDB07C40F0020004E09A
:1039100005F048FDB07C40F00400B074CEE606B07F
:10392000BDE8F04705F03EBD2DE9F04705460078BB
:10393000914600270209FF480C463E46012A6DD0F9
:1039400000234FF6FF71022A69D0072A09D00A2AFC
:1039500071D0FFDFA9F800600CB1278066800020DD
:1039600044E6D5F804C09CF80060132E7DD010DC2E
:1039700004F1080204F118080E2E21D004DC042EF4
:103980005AD0072E57D10DE0112E6FD0122EF9D13B
:103990001FE0143E072E4ED2DFE806F0C14D4D0960
:1039A0009FEAB00012271026BCF8040014E11C277F
:1039B000092694B3BCF80200A080686800795AE137
:1039C0001B2709264CB30320207268684088A0801A
:1039D000C0E79CF802003C2827D0102718260CF1DD
:1039E000020CD4B1BCF80200A080BCF818006082C0
:1039F000BCF818002082BCF81A00A082BCF81C0099
:103A0000E0829CF805000CF10601FFF7F4FC9CF83D
:103A1000040028B10120E0739CE703E0BFE0DFE091
:103A20000220F8E7A9F8006099E71B270926002C77
:103A3000F8D023728EE720E11D273726002CF1D025
:103A4000A18069680879491DFFF7D5FC686890F87E
:103A50002B00A0756868C0780428E07D16D020F09F
:103A60000100E0756968C97801E06DE011E061F37B
:103A70004200E07569681F22C97A61F3C700E075EA
:103A8000696840460C311DF015FE63E740F0010007
:103A9000E7E71D273726002CC4D0A1806868411DA8
:103AA0000079FFF7A8FC696804F10F0201F10C002E
:103AB000CB7A01461846FFF79EFC6868807CA075AB
:103AC0006868C178E07D61F3420020F0F900E0759C
:103AD0001F2140461DF08FFE3CE720271026002CBA
:103AE000A0D0A180686804F10902407A2072696858
:103AF000CB1C88781946FFF77EFC2BE721270A2686
:103B0000002C8FD0BCF80210A1806968097921725D
:103B1000696849796172817C21F0040157E02227AC
:103B20000B26002C84D0BCF80400A0806868807844
:103B300020726868807901F07DF960726868C079E8
:103B400001F078F9A07205E724271026002CA3D0F5
:103B5000BCF80200A0806868007920816868007A5B
:103B600060816868C088A08168684089E081F1E66A
:103B700023271026002C8FD0BCF80210A180696882
:103B8000898821816968C988618169680989A181F9
:103B900069684989E181817C21F0020117E0297A75
:103BA000012903D0022914D0FFDFD3E61F271026F6
:103BB000002C95D06988A180A9892181E98961813A
:103BC000298AA181698AE181817C21F001018174C6
:103BD000C0E6122768881026214601F009F9B9E6E7
:103BE000287A072850D2DFE800F0373D3D484848A2
:103BF000040011270926002C94D0B5F80280404615
:103C0000FFF76EFA90F822A0A4F80480687A207278
:103C1000042140460CF044FE052140460CF040FED5
:103C2000002140460CF03CFE012140460CF038FEDD
:103C3000032140460CF034FE022140460CF030FED9
:103C4000062140460CF02CFE072140460CF028FED1
:103C5000504601F074F87DE61B270926002C8AD017
:103C6000A180E6E61B270926002C84D0A180287AB3
:103C7000012800D0022020726CE64A4621462846E0
:103C8000BDE8F04701F0B5BEFFDF63E630B5294D72
:103C900097B0E878132802D0082017B030BD222052
:103CA0008DF800000BA968460AF0C3F8040002D1A1
:103CB000287901F044F80021062010F0B9F92046D7
:103CC000EBE700B51B4897B0C078122801D0082058
:103CD00016E41E208DF8000000208DF802008DF8FB
:103CE00003000BA968460AF0A4F80028F0D10021CF
:103CF000062010F09DF91120FFF78EF90020E7E76C
:103D000010B50C4C96B02078012815D01B208DF8EA
:103D1000000000208DF802000BA968460AF089F81F
:103D200000280AD10021084610F082F920780328E3
:103D300005D007E0CC010020082016B010BDA07807
:103D400000F0FDFF012000F0C9FF0020F5E770B58D
:103D5000002538B1022817D0062836D0072800D011
:103D6000FFDF70BDFFF7CCFF0028FAD105F017FB8D
:103D70000028F6D0017821F00F01891C21F0F00114
:103D80002031017005723FE08EB23046FFF7A8F98E
:103D9000040000D1FFDF20782128E2D005F0FFFAEF
:103DA00060B1017821F00F01891C21F0F001103180
:103DB0000170022101724680A57525E0214630463A
:103DC000BDE870401322FFF740BBFE48C478122CB8
:103DD00003D0132C04D0FFDF70BDFFF772FF01E0AA
:103DE000FFF754FF0028F7D105F0D9FA0028F3D0E7
:103DF000017821F00F01891C21F0F00120310170C0
:103E0000122C05D002210172BDE8704005F0CABA3B
:103E10000121F8E72DE9F04116460C00804600D15B
:103E2000FFDF307820F00F00801C20F0F000103011
:103E300030702078012804D0022817D0FFDFBDE8B9
:103E4000F0814046FFF74CF9050000D1FFDF032069
:103E5000A87505F0A7FA94E80F00083686E80F0069
:103E6000D848817C41F001018174E8E74046FFF7C2
:103E700037F9050000D1FFDFA1884FF6FF7000275A
:103E8000814202D1E288824203D0814201D1E0889E
:103E900040B105F087FA94E80F00083686E80F0075
:103EA000AF75CCE7A87D0128C9D17823002241460F
:103EB000022010F013F80220A875C0E730B50546BF
:103EC00097B00C46084610F0FFF878BB002101209F
:103ED000203D082D70D2DFE805F004254C505A67CC
:103EE00072400021072010F079F808B11120D4E6C3
:103EF00024208DF80000D4F80200CDF80200A0794B
:103F00008DF806000BA9684609F093FF050054D10F
:103F100000220823114607200FF0E0FF07284CD0AD
:103F2000FFDF4AE0606810F013F908B11020B4E632
:103F30004A208DF800002088ADF802006088ADF8B6
:103F400004000BA9684609F074FF050035D16068CC
:103F500048B3BDF8301001802FE04C208DF80000F0
:103F60002088ADF80200A07800F001008DF8040070
:103F700014E0206801F0D1FF14E04B2208E000BFFC
:103F80008DF802000AE000BF8DF8021006E046221C
:103F90008DF800202278D207F6D0F1E70BA9684609
:103FA00009F047FF054608E02178C90704D05421ED
:103FB0008DF80010E4E7FFE7072528466DE6382076
:103FC0008DF800002088ADF802006088ADF804008C
:103FD000E4E730B5054697B00C46084610F09AF86D
:103FE00008B1102059E6203D082D27D2DFE805F062
:103FF00004242424262626242088FFF771F820B1E3
:104000000078222804D2082047E643F2020044E662
:1040100025208DF800002088ADF802000BA9684625
:1040200009F007FF0028DDD1DDF83210C4F80210D6
:104030009DF83610A17130E606202EE607202CE60A
:104040006048801D704738B516215E481DF0B1FBF1
:10405000012000F043FE1120FEF7DEFF594C6846B8
:10406000E11D05F0FCF89DF80010A07961F3470010
:1040700020F00100A071002020744FF46170E081F5
:1040800002206074FFF713F800B1FFDFFDF76CF951
:1040900001F0E1FA38BD10B50C46402120461DF074
:1040A00088FBA07F20F00300A07720202070002054
:1040B000A07584F8230010BD70477CB5054610F04C
:1040C00003F808B110207CBD3E4CA11DD4F80600B9
:1040D0000090D4F80A0001902846FFF775F90028EF
:1040E000F1D1FEF7E4FF0028EDD00099C4F80610E6
:1040F000BDF8041061819DF8061021737CBD10B5D8
:10410000044610F007F808B1102010BD2D492246D2
:104110008879C91D4008FFF76EF9002010BD2DE910
:10412000F0479CB00D4604004FF0000811D0082263
:10413000FFF799F800281BD1002608E054F8260064
:1041400004A9FFF709F9002812D1761CF6B2AE4295
:10415000F4D32F460A2006AD0DF1440A8DF818005D
:1041600026465146284609F064FE20B143F203205A
:104170001CB0BDE8F0874046DFF8488088F80500AD
:1041800046B300244FF00B0920E000BF56F824008E
:1041900005A9FFF7E1F800B1FFDF9DF81400A87052
:1041A00056F8240050F8011FC5F803108088A5F8C0
:1041B000070085F800905146284609F03AFE00B104
:1041C000FFDF01E0CC010020641CE4B2BC42DDD37F
:1041D00088F805700020CBE72DE9F0479EB0154622
:1041E000894604001DD00F4608222946FFF73BF8F8
:1041F000002810D1002612E054F8260005A910303E
:1042000000F0DEFD002806D13FB157F826000FF080
:104210005BFF10B110201EB0ABE7761CF6B2AE42C9
:10422000EAD30026A5F101081CE000BF06F1010A4F
:104230000AF0FF0712E000BF54F82600017C4A088C
:1042400054F827100B7CB2EB530F05D10622113026
:1042500011311DF003FA78B17F1CFFB2AF42EBD3EE
:104260000AF0FF064645E1DBC8462E4607AD0DF1D4
:10427000480924B1012003E043F20520CBE70020E8
:104280008DF81E0031208DF81C004946284609F0A3
:10429000D0FD38B934208DF81C004946284609F075
:1042A000C8FD10B143F20420B5E77CB300272BE032
:1042B00054F82700A91C103000F082FD00B1FFDF88
:1042C00054F82700102250F8111FC5F803108088F9
:1042D000A5F8070054F8271005F109001DF0EAF9C8
:1042E000B8F1000F16D058F82710102205F1190068
:1042F0001DF0E0F9322028704946284609F099FD62
:1043000000B1FFDF7F1CFFB2B742D1D3FFF7DCF86B
:10431000002080E705F1190001F0F3FDEAE770B530
:1043200096B004460FF0D0FE18B960680FF019FF80
:1043300010B1102016B070BD60884AF2B8118842E2
:1043400007D82078FE4D6E4628B1012806D00228F5
:1043500004D00720EEE7FEF7AAFE1AE060780228F4
:1043600004D0032802D043F20220E3E76874172048
:104370008DF80000697C0020CDF80200ADF8060041
:10438000022934D003292FD0FFDF0BA9684609F09A
:1043900050FD0028CED1606801F0A6FD207870B1F4
:1043A00001208DF80200F01C01F0ABFD4E208DF8CD
:1043B00000000BA9684609F03CFD00B1FFDF207842
:1043C0002874FFF781F8608898B1E88180B2ADF871
:1043D000020030208DF800000BA9684609F029FD85
:1043E00000B1FFDF0020A5E78DF80700CDE74020F2
:1043F000FAE74FF46170E8E710B504460FF08AFE63
:1044000020B9606838B10FF0A3FE08B1102010BDCC
:10441000606801F076FDCA48C1896180417C6170A5
:10442000007C2070002010BD2DE9F0419CB00546B5
:1044300000208DF864008DF860008DF830008DF854
:1044400068001E461446884628460FF08AFE18B9B2
:1044500020460FF086FE10B110201CB0EFE455EAA4
:10446000040018D01F270CAB19AA41462846009714
:10447000FEF715FF0028F0D11AAB18AA31462046E6
:104480000097FEF70CFF0028E7D19DF86000C007F9
:1044900003D00A20E1E70720DFE701AF7DB11A2052
:1044A0008DF804008DF8068042462946F81C1DF060
:1044B00001F90DA901A809F0BCFC0028CDD17CB1FF
:1044C00020208DF804008DF8066032462146F81C45
:1044D0001DF0F0F80DA901A809F0ABFC0028BCD133
:1044E00097499DF8300048700020B6E72DE9F04765
:1044F0009CB08A464FF0000892A104468DF83480A3
:10450000D1E90001CDE9190120460FF0DDFD90B998
:104510002078012803D160680FF0D6FD58B9884D86
:104520004FF00109287C40B1687C022805D1606801
:104530000FF017FE08B110201AE62878012801D0E4
:10454000082015E607200CF04BF918B9207878B14F
:1045500001280DD0FEF77AFD60B1608943F6E17263
:10456000A0F12001914221780CD3012904D0B6E0BA
:104570001220FDE51320FBE500287DD1A18900294B
:104580007AD109E0012907D06978C90704D0A18947
:10459000002971D0B4296FD8217831B1012908D010
:1045A000022904D0032967D10AE0002609E0022687
:1045B00007E008B9A08908B1042609E0012607E050
:1045C0000326287C50B1687C022807D1606828B196
:1045D0000DA96068FEF7C0FE0028ADD1207A30B189
:1045E000012806D0022806D0032878D105E000274C
:1045F00004E0012702E0022700E003270EB1022EAB
:104600000ED16FB16879B8B36878800702D043F2F1
:104610000120ADE5022E03D1022F60D0032F5ED022
:10462000207808B1012806D1504600F06BFB002825
:1046300087D185F802A018208DF838006089ADF880
:104640003A006089ADF83C008DF83E600DF13F0006
:10465000FEF7A5FE00B1FFDF9DF834008DF84000A5
:104660002078012806D0287C68B1687C02280AD10D
:10467000606840B1606800E031E050F8011FCDF89B
:104680004110808802E04046CDF84180ADF84500F9
:104690008DF84870A07BC0F34002014662F35F01D1
:1046A000C0F3800041EA800019A9085C8DF847003A
:1046B000A8B169460EA809F0BCFB0028A9D11B20AF
:1046C0008DF838008DF83A9069460EA809F0B1FBD4
:1046D00000289ED19DF801001B281CD101E0072075
:1046E00046E5052E0CD2DFE806F0030308080300B8
:1046F000A87800F017FB032000E0022000F0EEFA9B
:10470000012E0AD0A08940B1002283001146104634
:104710000FF0E4FB08B103202AE5002028E52DE98D
:10472000FC4107460D46032608460FF01AFD0028F7
:104730006CD13846FEF7D4FC04000CD0207805E09C
:10474000CC0100200706050403020100222805D23F
:104750000820BDE8FC8143F20200FAE7A07F00F0E8
:10476000030C2DB129466046FEF747FD0600F0D147
:10477000BCF1010F05D0BCF1020F18D0FFDF3046AD
:10478000E7E7A07D2946022801D011B107E01120FA
:10479000DFE76846FCF7F6FE0028DAD169463846BE
:1047A00006F08DFC0600EAD10120A075E7E7A07DA8
:1047B000032803D1FE48807CC00701D035B30EE04A
:1047C00025B1A07F40071FD4002100E00121384619
:1047D00006F095FC0600D2D1A075002DCFD02A4658
:1047E00021463846FEF753FE06461128C7D1A07F62
:1047F0004107C4D4296844F80E1F6968616040F01D
:10480000040020740026BAE71126B8E71020A0E7BC
:1048100070B50C460546FEF763FC010005D0224644
:104820002846BDE87040FEF710BE43F2020070BD9E
:1048300000B597B043218DF800108DF802000BA948
:10484000684609F0F6FA17B000BD0123FEF74BBC2D
:1048500000231A461946FEF746BC30B597B0044609
:104860000FF032FC10B1102017B030BD204600F020
:1048700095FA0028F8D1CE4DE878112801D008200B
:10488000F2E7FEF7E3FBE0B32078800701D5687913
:10489000C0B31D208DF800002078022200F0010036
:1048A0008DF802006088ADF80400A088ADF806001D
:1048B0002078C0F3400102EA500001438DF809104E
:1048C00002A8FEF76CFD00B1FFDF0BA9684609F0F6
:1048D000B0FA0028C8D11E208DF8000001208DF804
:1048E000020000208DF803000BA9684609F0A1FA28
:1048F0000028B9D1E08800F06DFA0400B4D112208C
:1049000001E004E005E0FEF787FB2046ACE713205A
:10491000AAE70720A8E72DE9F043A54E074697B080
:10492000F078994615460C46122803D1FFF7C9F9CD
:10493000002816D120460FF0C7FBE8BB28460FF031
:10494000C3FBC8BB204600F029FA002809D129463C
:104950000220FEF752FC002803D1F078112803D082
:10496000082017B0BDE8F08306200BF039FF50B1E6
:104970002078800701D5707938B1FEF767FB0228EF
:1049800005D21320EDE71220EBE70720E9E721200D
:104990008DF800006088ADF80200A088ADF8040032
:1049A00020784FF00008C0F340008DF80600207812
:1049B00080071FD4384600E002E00FF085FB08B105
:1049C0001020CEE73878400808D0012809D0022806
:1049D00007D0032805D043F20220C2E78DF80780F4
:1049E00002E001208DF8070057F8010F0290B88807
:1049F000ADF80C000DF10E00FEF7D1FC08B103205C
:104A0000AFE72888ADF810006888ADF81200A888D4
:104A1000ADF81400E888ADF81600ADF81880ADF8D0
:104A20001A80484600F06EF900289AD186F8049062
:104A30000BA9684609F0FDF9002892D1307900F001
:104A400071F9E08800F0C6F904008AD11320FEF75E
:104A5000E3FA204685E730B5054697B00C46084690
:104A60000FF058FB08B11020FEE62846FEF738FB91
:104A700038B10178222902D3807F800604D408202F
:104A8000F2E643F20200EFE613208DF80000ADF8E5
:104A900002500BA9684609F0CCF90028E4D19DF931
:104AA00032107F2901D02170DEE60520DCE630B52A
:104AB000054697B00C4608460FF006FB08B11020DB
:104AC000D2E62846FEF70CFB20B10078222804D25B
:104AD0000820C9E643F20200C6E63548807C40075C
:104AE00001D51120C0E62078800802D160788008C6
:104AF00001D00720B8E657208DF80000ADF802502D
:104B000020788DF8040060788DF805000BA96846C0
:104B100009F08FF9A8E62DE9F041B0B014460D4632
:104B20000646FEF7DDFA070006D03878222806D2BE
:104B3000082030B0BDE8F08143F20200F9E72846D2
:104B40000FF00FFB30B94FF000084CB120460FF0CA
:104B5000FFFA08B11020ECE7C4F80080A4F8048044
:104B60001348807C800701D51120E2E797F82200E6
:104B700004F0AEF98088011DFB2901D2001D00E080
:104B8000FB20C0B26A46294600F0E3F82C2209490E
:104B900004A81CF0D4FDBDF80200ADF81400BDF867
:104BA0000600ADF81600ADF81260BDF8000003E095
:104BB000CC010020681B0200ADF81800BDF804000D
:104BC000ADF81A001AA904A809F033F900B1FFDF03
:104BD000BDF86C00ADF80800BDF86E00ADF80A0035
:104BE000BDF87000BDF87210BDF800200844ADF8A3
:104BF0000C0007201B2A9CD3BDF802101B2998D358
:104C0000FB2A96D8FB2994D806278A4210D1012185
:104C1000104600F05AF8BDF80410884208D1BDF8DB
:104C20000200012100F051F8BDF80610884201D0C1
:104C300038467EE7BDF8080028B9BDF80A1011B95A
:104C4000BDF80C1029B35DB1298849B1698839B123
:104C500024B102982060BDF80C00A080132068E702
:104C6000BDF80010BDF80A20081A80B2ADF80000A7
:104C7000BDF80210891AADF80210012100F025F8E4
:104C8000ADF80400BDF80200012100F01EF8ADF8F7
:104C900006002C226B490FA81CF051FDADF83E60B8
:104CA000BDF80200ADF84000BDF80600ADF84200C6
:104CB000BDF80000ADF84400BDF80400ADF84600B2
:104CC00025A90FA809F0B5F833E7022903D0C000E1
:104CD000703080B2704780003C30FAE730B55A4DF2
:104CE000040008D0012C04D0022C06D0032C04D0E0
:104CF000FFDF2C7030BDFFDFFBE728780128F8D0FC
:104D0000FFDFF6E710B5044604F0E2F830B1407872
:104D100030B1204604F0ECFB002010BD072010BD90
:104D2000122010BD10B504F0D3F8040000D1FFDF4D
:104D3000607800B9FFDF6078401E607010BD10B56C
:104D400004F0C6F8040000D1FFDF6078401C6070FA
:104D500010BD10B5144631B10A682260496861601F
:104D6000218839B107E0208060800121FFF7ADFF85
:104D7000A0800DE02080618801B96080A08820B902
:104D800020880121FFF7A1FFA080E088002804D13E
:104D900060880121FFF799FFE08010BD418843F64C
:104DA000FD730A1F9A4209D28088042806D3B0F501
:104DB000804F03D8884201D80020704707207047F1
:104DC0000278520804D0012A02D043F20220704730
:104DD000FEF7C2BA10B548B1830000221146062082
:104DE0000FF07CF8062801D0032010BD002010BD74
:104DF00070B50C0006460DD0FEF772F9050000D123
:104E0000FFDFA68028892081288960816889A081A8
:104E1000A889E08170BD10B500231A4603E0845CC8
:104E20002343521CD2B28A42F9D30BB1002010BDE9
:104E3000012010BD00B5012803D0022801D0FFDFFA
:104E4000002000BDC01B0200CC01002010B50446AC
:104E50000FF03AF908B1102010BD2078C0F302100D
:104E6000042807D86078072804D3A178102901D82E
:104E7000814201D2072010BDE078410706D4217994
:104E80004A0703D4000701D4080701D5062010BD46
:104E9000002010BD10B513785C08C37F64F30003D5
:104EA000C3771478A40864F34103C3771078C30967
:104EB000487863F34100487013781C090B7864F359
:104EC00047130B701378DB0863F3000048705078C9
:104ED000487110BD10B5C4780B7864F300030B70F3
:104EE000C478640864F341030B70C478A40864F3C5
:104EF00082030B70C478E40864F3C3030B70037976
:104F0000117863F30001117003795B0863F34101C9
:104F1000117003799B0863F3820111700079C00856
:104F200060F3C301117010BD70B514460D460646FE
:104F300004F035FA80B10178182221F00F01891CA4
:104F400021F0F001A03100F8081B21461CF0F7FB0E
:104F5000BDE8704004F026BA29463046BDE87040EE
:104F60001322FEF772BA10B5FE4C94F830000028F8
:104F70000CD104F120014FF6FF72A1F110000DF0E9
:104F800061F800B1FFDF012084F8300010BD2DE989
:104F9000F047064608A8894690E830041F46904628
:104FA000142128461CF027FC0021CAF80010B8F193
:104FB000000F03D0B9F1000F03D114E03878C00717
:104FC00011D020680FF0A6F8F0BBB8F1000F07D1A0
:104FD0002068123028602068143068602068A8605B
:104FE0002168CAF800103878800728D560680FF06B
:104FF000AFF848BBB9F1000F2DD0FFF721F80168D9
:10500000C6F8C8118188A6F8CC11807986F8CE013F
:10501000FFF7A9FFDFF84C8308F12008C5F80C80E2
:10502000626862B196F8C80106F2C91140081032F0
:10503000FEF7E1F91022414660681CF03BFB38782E
:10504000400712D5A06800E002E00FF063F850B10D
:105050001020BDE8F08760680028F9D0E86060683B
:10506000C6F8C401EBE7A06828610020F1E730B57D
:10507000054608780C4620F00F00401C20F0F00197
:10508000103121700020607095F8230030B10428A1
:105090000FD0052811D0062814D0FFDF2078012179
:1050A000B1EB101F04D295F8200000F01F006070D3
:1050B00030BD21F0F000203002E021F0F00030306F
:1050C0002070EBE721F0F0004030F9E710B510B1A7
:1050D00090F8BD4044B1A34890F83540002064B139
:1050E00008601060186010BD00F1BC040C6000F195
:1050F000E40100F586701160F4E79A4C34340C60DA
:10510000EFE700B58BB00723CDE902128DF801302F
:1051100001919449002364310591099301468DF86A
:10512000103068460CF066FF002800D0FFDF0BB09F
:1051300000BD70B590B015460C4602220646ADF88B
:105140000820092103AB04F014FF0490002812D0BA
:105150000C208DF8010004208DF8040004F59A74E9
:10516000099605948DF818500AA968460CF042FF7C
:1051700000B1FFDF012010B070BD30B597B00C4614
:105180002C251A998DF80050ADF80200B3B11868BB
:10519000019058680290ADF80C2010220DF10E001D
:1051A0001CF088FA0BA9684608F043FE002803D1DA
:1051B000A17F41F01001A17717B030BD0020019010
:1051C000E8E72DE9F0470646808A8CB080B20D46AC
:1051D0008246FDF785FF0446624F3078283FDFF8AE
:1051E00084914FF00008112873D2DFE800F072F1CB
:1051F000350936777E98A7F2EFEEEDEC5BECEC002C
:10520000A07F00F00300012806D0002150460BF0DB
:1052100035FB050003D101E00121F7E7FFDF99F835
:105220005C10C90702D0D9F860000BE0032105F13A
:1052300021000EF01AFCD5F821004B49B0FBF1F229
:1052400001FB1200C5F821007068A867B068E86724
:105250002078252800D0FFDFECE0A07F00F00300DD
:10526000012806D0002150460BF008FB060003D1B0
:1052700001E00121F7E7FFDF3078810702D52178CF
:10528000252904D040F0010030700CB0E1E6022086
:10529000287096F82000287106F121003136C5E902
:1052A0000206F2E7A07F00F00300012806D00021EB
:1052B00050460BF0E3FA040003D101E00121F7E7C7
:1052C000FFDF2078C10605D51320287041346C60BB
:1052D000DBE7BEE140F008002070D6E72148082156
:1052E00028380EF0C2FB032016E02A208DF80000BB
:1052F00010220DF1020071681CF0DCF910220DF192
:105300001200B1681CF0D6F9164968462C3908F02D
:1053100090FD00B1FFDF042028706F60B5E7E07FEB
:10532000C00600D5FFDF307CB28800F001030CB06E
:105330005046BDE8F047092105F068BC04B9FFDF1D
:10534000716821B1102204F124001CF0B3F9282166
:105350002046FDF7FDFEA07F00F00300022814D1D7
:1053600004E000001802002040420F0004F1240075
:10537000002300901A4621465046FFF7FEFE1128F2
:1053800007D029212046FDF7E3FE307A84F820007B
:105390007BE7A07F000700D5FFDF14F81E0F40F069
:1053A00008002070A4F81680C4F81880C4F81C8087
:1053B0006178084661F38200410861F3C3006070C0
:1053C000307AE07061E727E03FE17AE051E000E009
:1053D00037E0A07F00F00300012806D000215046EE
:1053E0000BF04CFA040003D101E00121F7E7FFDFE5
:1053F000022104F189000EF038FB1020287004F51A
:10540000E4706860B4F88910298204F18000FD49D5
:105410006861C5E9029138E7A07F00F00300012828
:1054200005D0002150460BF029FA18B901E00121FE
:10543000F8E7FFDF0CB0324621465046BDE8F047A2
:1054400072E504B9FFDF20782128A1D9307901283D
:1054500003D1E07F40F01000E0773246214650460D
:10546000FFF762FD0CB02046BDE8F0472321FDF7B1
:105470006FBE3279AA8005F108030921504604F075
:1054800078FDE86010B111202870FEE6A07F00F0E2
:105490000300012806D0002150460BF0EFF904006C
:1054A00003D101E00121F7E7FFDF04F166010223E8
:1054B0001022081F0BF04FF880F8008031794170FE
:1054C000E3E6A07F00F00300012806D0002150464B
:1054D0000BF0D4F9050003D101E00121F7E7FFDF6C
:1054E00095F8880000F00300012879D1A07F00F032
:1054F0000307E07FC0F3400616B1012F04D02BE074
:1055000095F8A400C0072AD0D5F8C00118B395F8C3
:105510008720017C62F387010174E27FD5F8C00126
:1055200062F341010174D5F8C00166F30001017412
:10553000AEB1D5F8C001102204F124018C351CF065
:10554000B9F8287E40F001002876287820F0010084
:1055500005F88C0900E016B1022F04D02CE095F874
:105560008C00C00726D0D5F8BC1119B395F8872058
:10557000087C62F387000874E27FD5F8BC1162F3FF
:1055800041000874D5F8BC1166F3000008748EB1B0
:10559000D5F8BC01102204F124018C351CF08AF8E6
:1055A000287840F0010005F8180B287820F0010059
:1055B00005F8A409022F44D05FF0000000EB400082
:1055C00005EBC00090F88C00800709D595F88000A5
:1055D000D5F8C421400805F181011032FDF70BFF19
:1055E00005208DF8000095F888006A4600F0030059
:1055F0008DF8010095F88C108DF8021095F8A40034
:105600008DF803002146504601F03CFA2078252809
:1056100005D0212807D0FFDF2078222803D92221B6
:105620002046FDF795FDA07F00F0030001280AD079
:10563000002150460BF034F900283FF432AEFFDF72
:1056400023E60120BAE70121F3E7716881F80180C0
:105650001BE6FFDF19E670B56A4C0025103C04F824
:105660005C5F65600CF093FC6649A1F1100003F0EB
:1056700028FE04F82C5C0620607262487C302061B1
:105680005030A0611030E06170BD70B50D46FDF77F
:1056900027FD040000D1FFDF4FF4E87128461CF01D
:1056A000AAF858485430686104F124002861A07FAA
:1056B00000F00300012809D05FF0020105F59A709F
:1056C0000CF066FC002800D0FFDF70BD0121F5E77B
:1056D0000A46014602F59A700CF07ABC70B5054690
:1056E00040689CB00178082906D00B2937D00C29D6
:1056F00033D0FFDF1CB070BD46883046FDF7F0FCAC
:10570000040000D1FFDF20782128F3D0282821D100
:10571000686802210C3001F0AAF9D8B16868082144
:10572000001D01F0A4F9A8B12D208DF80000ADF8FE
:105730000260102204F1240101A81BF0BBFF0BA999
:10574000684608F076FB00B1FFDF29212046FDF70F
:10575000FFFCCFE703F026FECCE7012181716868EA
:1057600086883046FDF7BCFC040000D1FFDFA07F37
:1057700000F00301022902D120F01000A077207868
:1057800021280AD06868817909B1807880B1A07F2A
:1057900000F0030002285ED0FFDFA07F00F00300CE
:1057A0000228A7D1FDF7ADFE0028A3D0FFDFA1E7B7
:1057B00003F0F8FDE07FC10728D0800705D594F8F5
:1057C000200000F01F0010281ED0052084F82300C0
:1057D000207829281CD02428DFD1314605200EF05E
:1057E00027FC22212046FDF7B3FCA07F00F0030038
:1057F00001282ED0002130460BF052F80028CCD0E2
:10580000FFDFCAE7280200200620DFE70420DDE7EB
:10581000A07F00F00300012806D0002130460BF0E5
:105820002DF8050003D101E00121F7E7FFDF252175
:105830002046FDF78DFC0F208DF8580016A905F5C0
:105840009A700CF0BCFB0228A7D00028A5D0FFDF7F
:10585000A3E70121CFE703F0A5FD9EE72DE9F04383
:105860008BB09946154688460646FDF739FC04007C
:105870004FD0207822284CD323284AD0E07FC0067E
:1058800047D4A07F00F00300012806D00021304655
:105890000AF0F4FF070002D00CE00121F7E7A07F37
:1058A00000F00300012805D10121002230460AF052
:1058B000DCFF074601AB02AA03A93846FFF706FC46
:1058C000039800B9FFDF4FB1039807F59A77876116
:1058D0002078222806D0242804D007E0039900204D
:1058E000886103E025212046FDF732FC03980B2157
:1058F000417046628580C0E902890299016101997F
:10590000416104A90CF076FB022802D0002800D0E7
:10591000FFDF0BB0BDE8F08370B586B00546FDF73C
:10592000DFFB017822291CD9807F00F003000128C9
:1059300006D0002128460AF0A1FF040030D101E082
:105940000121F7E7FFDF2BE0B4F8620004F16606FF
:1059500030440178427831B121462846FFF7E9FB0F
:10596000B8B906B070BDADF804200921284602ABD5
:1059700004F0FFFA03900028F3D011208DF8000006
:10598000694604F59A700CF01AFB022801D000B1A8
:10599000FFDF02231022314604F162000AF011FEFB
:1059A000B4F864000028CFD1DBE710B586B0044618
:1059B000FDF796FB0178222919D9807F00F00300BA
:1059C000012806D0002120460AF058FF040003D128
:1059D00001E00121F7E7FFDF12208DF800006946A2
:1059E00004F59A700CF0EBFA002800D0FFDF06B047
:1059F00010BD2DE9F05F05460C4600270078904663
:105A000001093E46BB4604F1080A02297ED0072957
:105A100002D00A2909D142E068680178082905D036
:105A20000B292CD00C292AD0FFDFAEE114271C262D
:105A3000002C6CD04088A080FDF752FB5FEA000983
:105A400000D1FFDF99F817005246400809F118010C
:105A5000FDF7D1FC68688089208268684168C4F8D5
:105A600012108068C4F81600A07E20F0060040F0F6
:105A70000100A07699F81E0040F040014DE01A2781
:105A80000A26002CD5D08088A080FDF729FB0500D0
:105A900000D1FFDF51462846FFF7E9FA75E10CB166
:105AA000A88BA080287A0D287ED006DC01287CD027
:105AB000022808D0032804D135E00F2876D010281A
:105AC00075D0FFDF61E11E270926002CB1D0A08828
:105AD000FDF706FB5FEA000900D1FFDF287B00F03D
:105AE00003000128207A1BD020F001002072297BBE
:105AF000890861F341002072297BC90861F38200A3
:105B00002072297B090961F3C30001E032E1E9E079
:105B1000207299F81E0040F0800189F81E1034E1CF
:105B200040F00100E2E713270D26002CAAD0A08840
:105B3000FDF7D6FA8146807F00F00300012806D0E9
:105B40000021A0880AF09AFE050003D101E001219E
:105B5000F7E7FFDF99F81E0000F00302012A59D091
:105B6000E86F817801F003010129217A54D021F0F6
:105B70000101217283789B0863F3410121728378CC
:105B8000DB0863F38201217283781B0963F3C3018D
:105B90002172037863F306112172437863F3C7110E
:105BA000217284F809B003E05EE0A4E08BE09CE0A1
:105BB000C178A172012A32D04279E17A62F3000100
:105BC000E1724279520862F34101E172427992082E
:105BD00062F38201E1724279D20862F3C301E17299
:105BE0000279217B62F3000121730279520862F38A
:105BF000410121730279920862F3820121730079D5
:105C0000C00860F3C301217399F80000232859D913
:105C1000262168E0A86FA4E741F00101A9E7027915
:105C2000E17A62F30001E1720279520862F3410104
:105C3000E1720279920862F38201E1720279D2087C
:105C400062F3C301E1724279217B62F300012173A7
:105C50004279520862F3410121734279920862F35A
:105C6000820121734079CBE718271026D4B3A0888E
:105C7000FDF736FA8246807F00F00300012807D046
:105C80000021A0880AF0FAFD5FEA000903D101E0D3
:105C90000121F6E7FFDFE868A06099F8000040F016
:105CA000040189F8001099F80100800708D5012047
:105CB00020739AF80000232867D9272150464BE02B
:105CC00084F80CB061E015270F265CB1A088FDF7C1
:105CD00007FA814606225146E86808F012F90120C9
:105CE000A07397E03BE0484636E016270926B4B398
:105CF000287B207249E0287B19270E267CB30128D7
:105D000007D0022805D0032805D0042803D0FFDFE0
:105D10000DE0207207E0697B042801F00F0141F0DB
:105D2000800121721CD0607A20F003006072A0888C
:105D3000FDF7D6F905460078212826D0232800D083
:105D4000FFDFA87F00F00300012811D00021A08808
:105D50000AF0A6FD22212846FDF7FAF915E004E035
:105D6000607A20F00300401CE0E7A8F8006011E032
:105D70000121ECE70CB16888A080287A03282BD099
:105D800004280AD005284BD0FFDFA8F800600CB12A
:105D9000278066800020BDE8F09F15270F26002C85
:105DA000E3D0A088FDF79CF9807F00F00300012874
:105DB00006D00021A0880AF061FD050003D101E0B2
:105DC0000121F7E7FFDFD5F821000622514608F050
:105DD00098F884F80EB0D8E717270926002CC4D00D
:105DE000A088FDF77DF98146807F00F0030001283F
:105DF00006D00021A0880AF041FD050003D101E092
:105E00000121F7E7FFDF6878800701D5022000E075
:105E10000120207299F800002328B6D9272162E7D3
:105E200019270E26002CA0D0A088FDF759F95FEAAB
:105E3000000900D1FFDFC4F808B0A4F80CB084F862
:105E400008B0A07A40F00300A07299F81F1061F327
:105E50008200A07299F81F10C1F34002114205D0D0
:105E600099F8201001F01F01102926D020F0080019
:105E7000A072687A00F00300012886D1607A40F0B1
:105E80000400607299F81E0000F003000128E87A0F
:105E900016D0617B60F300016173AA7A207B62F304
:105EA00000002073EA7A520862F341016173A97A13
:105EB000490861F34100207367E740F00800D7E725
:105EC000217B60F300012173AA7A607B62F30000FA
:105ED0006073EA7A520862F341012173A97A490892
:105EE00061F34100607350E710B5FE4C30B10146DC
:105EF000102204F120001BF0DDFB012084F83000AB
:105F000010BD10B50446FFF72EF8F64920461022C2
:105F1000BDE8104020311BF0CDBB70B5F14D06003F
:105F20004FF0000412D00EF0CFF808B110240BE0AF
:105F30000621304607F0CCFF411C04D02866012022
:105F400085F85C0000E00724204670BD0020F7E7DC
:105F5000007810F00F0204D0012A05D0022A0CD1DB
:105F600010E0000909D10AE00009012807D0022841
:105F700005D0032803D0042801D0072070470870FB
:105F8000002070470620704705282AD2DFE800F07D
:105F900003070F171F00087820F0FF001EE00878A5
:105FA00020F00F00401C20F0F000103016E00878C0
:105FB00020F00F00401C20F0F00020300EE00878A8
:105FC00020F00F00401C20F0F000303006E0087890
:105FD00020F00F00401C20F0F0004030087000203E
:105FE0007047072070472DE9F041804688B00D4684
:105FF000002708460EF0B5F8A8B94046FDF770F83E
:10600000040003D02078222815D104E043F20200D6
:1060100008B0BDE8F08145B9A07F010603D500F0C6
:106020000300022801D01020F2E7A07FC10601D4AE
:10603000010702D50DB10820EAE7E17FC90601D5C5
:106040000D20E5E700F00300022805D125B1284620
:10605000FEF7FCFE0700DBD1A07F00F00300012863
:1060600006D0002140460AF009FC060002D00DE0EF
:106070000121F7E7A07F00F0030001280CD00021E8
:10608000002240460AF0F1FB060007D0A07F00F096
:106090000300022804D009E00121F1E70420B7E75A
:1060A00025B12A4631462046FEF7F4FE07AB1A46D4
:1060B00069463046FFF70AF8009800B9FFDF0099FB
:1060C0000C20487006F59A70C1F8248048610020C1
:1060D0000881A07F00F00300012828D0EDB3022042
:1060E0000871301D88613078400908777078C0F3F6
:1060F00040004877287800F00102887F62F30100B1
:106100008877E27F62F382008877E27F520862F349
:10611000C3008877727862F304108877A878C8770C
:1061200001F1210228462031FEF7D4FE22E00120B1
:106130000871287800F00102087E62F301000876F9
:106140002A78520862F3820008762A78920862F36D
:10615000C30008762A78D20800E007E062F3041052
:10616000087624212046FCF7F3FF0BE0032008719A
